010000001001061018001   5383     1    N 15010264040 BCADCABACDBBDCCAACACBDDABCDBACABCABBACBCBADDABBBDADCCCADAABCACBDBCCBDDCAAADA BCDCBCCDCDCDDAADBCDDAA
010000002001061018001   5383     1    N 15010286040CCDCDAABBBCBBCCDCAADDBDDBBABCDBBACCCDAABDADAADADB CABCABDDDABBCB DBCCADAC*ABAABDCCCCCADDCACA DBADDAA
010000003001061018001   5383     1    N 15010268040ABCB DA D C BDDDAADDDDDDCBADCAADBAACDAABDADBADACB BACBCCBBDAC CBADB CADACCCDACBDBAACCADDDACAADC CCCA
010000004001061018001   5383     1    N 15010280040AACBADACCDCBACCCCADDCBDAAA ACCBBDDAAD BBCCCCBABCCCDBDDDBDADADDABABBBBADACDADBABDCACCCDCDDADADDBCCBAB
010000005001061018001   5383     1    N 15010269040CABBADACCCCBBCCCBADDCBDDABCACAABCCCDBAABDADCADACBDCCBCCBDAAABCCBADBDDADACCCDBCBDBCCCCDADCACABDBCCDAA
010000006001061018001   5383     1    N 15010294040CB BAD CD C BCCCCAAACADDCBCACAB CBA DAABDAD ADAC ACABDDCCADADCDBBBBCADDACDCBBDBDBCBCCDBDDACAADDDCDAC
010000007001061018001   5383     1    N 15010282040C              C AC CBDDBACCCCAADACBDA B                       BABBDBDDADDCB BC                     
010000008001061018001   5383     1    N 15010271040CDDDBBABBDCBBCCADBDBCAAAABCCAADCABCCABDDCCBCADBBCDBDDBBCCCABDCCBACBBDBDDCCDDBDBBAACCDBDAADCCBDBCCCDA
010000009001061018001   5383     1    N 15010272040CBBD BA  DCCDA DCCCDCBAABBCDBBCDBCACCCAADCBCDDBD ACAD ADDADAA CBBC CCDD C BC  BDBB CCAC DC BBDCC DCB
010000010001061018001   5383     1    N 15010296040BCDCDAACDDCCBBDDAACACBAAAAAAACAABDC AAADDADCAABCADCCBCDBDAAADBBBADBDADDACDCDBABDCAACCDDD     A  C AB
010000011001061018001   5383     1    N 15010236040   B A A    AB A  AAB D AC B  A BB CC AB A   *A   D CBBA  A    AA B D BDCDCD DDCDCACCCACDDCDDDBCADAA
010000012001061018001   5383     1    N 15010249040   C      C    DCADACBDDAB   AABD B DAABDA CADB B          AD CBBC    DACC  B DDCCBCCDDADACAADD CDAA
010000013001061018001   5383     1    N 15010261040CCBC DCDDBCDABBCAACDDBDDABCCCBDDDABCBAABDADCABBDCBC   B  AAADCDBBBBBBCDACDCDAABDCCBCCDADDACAADBCCDAB
010000014001061018001   5383     1    N 15010260040CDDAADABDCDDBACACABDCBDDACCBCBBDDACCADCBDABCABCDBDC*BBABABDADCCBBBBBDDDACCCBBDBDCCACCDBDDBCAAADDCBAA
010000015001061018001   5383     1    N 15010259040CBCBADABDDC DCDACACACBDDCBCDCAABCBCBDAABDADCADACBBDCDBDBCBDACADBBBBCCDDACDCBBABDCCBCCDADCACAADBDCCAA
010000016001061018001   5383     1    N 15010258040CBCB    ADCBBBCDDAAACADDDBCCCAADCCCCDAABDADBADACBBCCDABBCAAADDDBBBBBCCDACDCDBCBDCCBCCDADDACAADDDCCAA
010000017001061018001   5383     1    N 15010243040CBDB DDBDBCDBBCDCABACBDDCBDDAADDBABBDAABDADCADADBCDBCCDBBBDADBDBBBBDCADACDCBBDBDCCBCCDADDBCBCABACDAB
010000018001061018001   5383     1    N 15010250040CBDDBBABDABBDDCACBCBCBDBABDBCBCACBCDDAABDCDBADACBCDCABCDABDDACCBBBBDABDACDDDBADC CCCDADBDACBCD  C CB
010000019001061018001   5383     1    N 15010189040CADB DACABBCCCBDCAAACBDDBBCDCAABCCCCDAABDADCADAABBCADDABDADADBDABBBDCDDACDADACBDACBCCDADBACAADBDDDAA
010000020001061018001   5383     1    N 15010179040CACB DB     B  DCACDCBDDAACBC DD ADCDAABDADCABACBBCCBCB DADDCADBACCDCBDACACDBDCDCCCCCDADCADAADBDCDAA
010000021001061018001   5383     1    N 15010180040DBCDAAACDDCBBCADCBBDCDADAACCCDBDDCACBAABBCBCADBCBCDCDBCDDABADCDBCDBDADDACDCDBDBDBCBCCDCADBCCBDDBCCBD
010000022001061018001   5383     1    N 15010161040CACBADABC CDBCDCBADDCBDDABCACABBCACCDAABDADCADACBBCAD BADBDADABBABB AADACCCBBDBDACBCCDDDCACDADBBCDAA
010000023001061018001   5383     1    N 15010177040CBDDCDABDBCDBCCDABABCBDAABACABBDCCADCBACDCBCABCDCDCDBCDBDADADCCBBDBAB DACDADBDBDBCCCCD CADCCADBCCDAB
010000024001061018001   5383     1    N 15010167040CBBADDABACBBDDDDBBABCD*BABCCDABDACCCBDABCABCBDBCBABDCCABAACADCCABDBCADDACDABADCBCADCCBBDCACCBADAACAB
010000025001061018001   5383     1    N 15010162040CA BAD  C C    BDBDDCB DABDCABAACCACDAABDADCADACB D BCCBCBDACADBBBBCCDDACCCDBDBDD BCCDBDBDC  D CCCCA
010000026001061018001   5383     1    N 15010152040ADDBADABBBDCDDBCCACACBDDCBCDCAABCCCCDAABDADCADADBCBCCCDABCAADCBBBBBACCDACCCABCDDDCBCCDADDACAADBCBAAC
010000027001061018001   5383     1    N 15010154040BADBDBAACBCDBCCDCDCBCBDBABAACABDDAACDADBDBDBAABCBBABBADBDADACADBABDCBADACDADAACDAACCCDBCD*DABDBACBAA
010000028001061018001   5383     1    N 15010156040ABCBADAADCCBBCADCAACCBDDCBBDCABDCDDCDAABDADBADACBBCBDDBBBACADBDBDBBBDDDACDCDAABDCCBCCDADCACAADBDCDAA
010000029001061018001   5383     1    N 15010215040                                           BADADDDCAADBBDBDADDCBBBBBADDACDCDBDBDABACCDBDDBABCDACCDCB
010000030001061018001   5383     1    N 15010216040C CBBDACADCDBCCCABBDCBDDAAADCACDCABCDAABDCDCABADBBCBBAABCAAADDDBDBBABBDACDABADBDCCCCCCBACABABDBDACAA
010000031001061018001   5383     1    N 15010190040ABDDCDCDCCCCDDDDBBCBCDDDACBCABDABDDBDDDADACBCABBADCCDADBBBADDBCDACDDCDCACDADACBDDACCDCBADACBCDCDDDAA
010000032001061018001   5383     1    N 15010224040CBDBADABDB*BCCCCCADACBDDBBCACADCCBACDAABDADCADACBBCADCABCDAADADBBBBCBDDACDCDA*BDCCCCCBADCABACDBDCDAA
010000033001061018001   5383     1    N 15010196040BACBBDDCDACDBCBDCACACBDDABBBCCADCDACDAABDACBABBDCACCBCACCADADBDBACBDCBDACDABAABCBABCCDDACADABDBCD*AA
010000034001061018001   5383     1    N 15010193040CACCBBABDCBBBCCDCCCCBBDDABDCCAADDDADDADBDDDDACBDAACCCCCCBBAAAABAACCBCDDACCDBBDBDADCCCDDDAAADDABCCCAA
010000035001061018001   5383     1    N 15010219040CBCBADABCCCBBCCDCACADBDDCBCACCDCACBCDAABDADCADACBBCDCCBCADDABCDBABBCCDDACDCBADCDCCBCCDADAACAADBDCDAA
010000036001061018001   5383     1    N 15010220040CBCBADABBDCABBDBCABACBDDCBCBCACBCDACDAABDADBADACBADACBABCBAADCDBABBCCBDACDCDBDBDBCBCCDCDCABAADBDCDAA
010000037001061018001   5383     1    N 15010092040DD B CABADCBABDDCABACBADCBCBDCDBCADBCACBD  AAAA BCDA  C DCDBDCDBADADCBDACBB CBCCBCBCCDCACBCAADBDCDAA
010000038001061018001   5383     1    N 15010096040B     A        ACACBCBDADBDDBBBCDCB B CBDA  AB    A BAABCADADCCBDDBABBDACDABADBD CCCCDADCBCCDDBDCCCA
010000039001061018001   5383     1    N 15010083040CBDCBDACCDDDBDDDBAACCCDBCDBDBCCADBBABDABDBDDADADDCCBCADBCDACDBCBBABCCDDACDBDBCDCBCCCBDCDDDCBADBBBCCB
010000040001061018001   5383     1    N 15010109040CAABABABDCDBBB*DCCBACBDDAAADCCACCDCBDAABCACBADACBBDBBCCADBDDDCBBDBBBAADACDCBADBDACBCCDBDDCCCADBCDDAB
010000041001061018001   5383     1    N 15010122040ABDCACA DDDDBC DDBABCAADAABBCCAABBA    C   D  BA DACBCDDCDAAAACABBBDCDDADDCDBACBAADCCDDCDADABABCDCAB
010000042001061018001   5383     1    N 15010085040DDDCCDADBCCCDCDCAAB*CADA*CCDCAADCBACCACBDBBBAABBBDDDCBCBAADADCCBACBDCCDACDCDADBDCACCCACDDADDDABCCDCB
010000043001061018001   5383     1    N 15010089040CBCBDDABBBC BCCDDAAACBDDABCBAACDCCACDAABDADCBDACBCCACCABDADADADBBBB ADDACDCDBDBDCCBCCDADC CAADBDADAA
010000044001061018001   5383     1    N 15010118040     DA     BCBCCACDDBDDABCDCABDCCBCDABBDADCADAD  CADBCADBDAC CBBCBACDDACDCDBDBCACBCCDCDCBCACDBDCDAA
010000045001061018001   5383     1    N 15010117040C  B DA      C ADACCCBDDAB A A CC   DAABDADBADACB D     CBDAD CAACB CADAC C B BD CBCCDADCA AADBCCDAA
010000046001061018001   5383     1    N 15010113040DACBBDABDDCABCCCDACACBDDCB*AAADCDCACDAABCADCADACBDCCDCDBDABADCCBBCBACDDACCDDAABDDACCCDBCAADAADBCDBAA
010000047001061018001   5383     1    N 15010124040CBDBADA D   BCCDCAAACBDDCBCBCABBCCCCDAAB                  DAD CBBBB   DACCCDBCBDCCBCCDADCACAADBDCDAA
010000048001061018001   5383     1    N 15010123040CADCABAABBCBBABACDCDCBCDAAD   C    CDAABDABBABBBBDCCADCDCAAAD   B B    ACA DAA D  CCC    AC  DB  D C
010000049001061018001   5383     1    N 15010134040CCDBADA*D*DABCDCCAADCBDDDBAACDDBCCCCDAABDADBADADBDC DBAABAADDACBDBBDCBDACDADADBDCCBCCDADCBCDBDBDDCAA
010000050001061018001   5383     1    N 15010135040CDDCDDADDBCDBCCDDACACCCDCAACCCADDCACCCCBDABCACBCBCCCCCBDCADCCCDBACCCDDCACCCDBABDCCCCCABDDACBCDCCDDAD
010000051001061018001   5383     1    N 15010138040CADDDBABBBBCBADDCABBCBDDDACBBAAADACACACCCDCDBAABCDACCACDDADADBCBBBDACDDCDADCBBCCDACCCDBDDADADDBBCBCA
010000052001061018001   5383     1    N 15010126040C DB DA A    CCCBAACCBCAAACDCCADD DCD AB ADCADADB CCCACDDBAACDCBBAB CDDBCCCDA CDBABCCDCCDBCACDBDCBAA
010000053001061018001   5383     1    N 15010130040CBDBAAABABCDBBDCCABDCBDDBBCACADBBAACDAABDADBADABBADABABADBAACCABCBBABDDACCCDAACDCCBCCDADDACAADBDCDAA
010000054001061018001   5383     1    N 15010131040ABDDADABCBCBB  ACBCACBDDDBCDBDADACCCDAABDCDCBBBCABCBDCCBDAAADCDBCBBCBDDACDABBCBDAAACCDADDACABDBADDAA
010000055001061018001   5383     1    N 15010144040CBCB DABA CBBCADAAAACBDDCBCBCADBD ADDAABDADCADACBBC C   D DAD DB BBCDBDACDCDBDCDCCCCCDADCACAADBDCCAA
010000056001061018001   5383     1    N 15010417040CACBADACABCBBCCDCAADCBDDABCDCCADCDBCDAABDADCADACBBCCDA    BAD DB BBACADACDCDBABDCCBCCDCDCACCADBBCDAA
010000057001061018001   5383     1    N 15010403040CBDBCDACDAADDC*DDACACBDDABDADBCDCCD DD C BCCA CDB C C BBCADAD DBBBBCBCDACDCCBDBDCCCCAD DCB A ABBDCAA
010000058001061018001   5383     1    N 15010385040D   A     C B BCCAACCBD AA D  ACDDC A  B    A  C      C DCDAD CBCBBAC DACCACBDAC CDCCCAADC          
010000059001061018001   5383     1    N 15010396040CBD  DA    CD  BABB CBD CACA CC D  CDAABDA BB ACB ACDBCBAABADCDBCBB   DACCCBB CDCCBCCDDDDB AADBCCDAA
010000060001061018001   5383     1    N 15010395040BADCADACDABDBBBCCCAADBDDCBCDCADCCDCCDAAADACCABBCBDCBDABBAAAADADBCBBCDDDACDCDBDBDCCBCCDADCADAADBCCDAA
010000061001061018001   5383     1    N 15010379040CBDB  ABD CBACDCDBBCCBABAB CBDACBDAB DAADACCBABBDCCCBCCDAADBDCBBBDBDDDADDDDAACC  CBCCDBAD  CBADAA   
010000062001061018001   5383     1    N 15010388040CBCBADABADCCBCCCBABADBDDABCDCAABCCACDAABDAACADACBBCDCABAAADADACBCBBDCDDACDCDBDBDBCBCCDADDACAADBCDDAA
010000063001061018001   5383     1    N 15010393040AADBADACDBCACC CCB A BDDABCBCAADCAACBAABDADCADACB CACCCADADADADBBBBCCCDACCCDBA DACCCCDBDDBCAADBDCDAA
010000064001061018001   5383     1    N 15010406040CB BADABAACBACCADACACBDDCADACADDBCACDAABDADCADADBBDACAABCAAADDDBABBCBDDACDCDADBDCCCCCDBDCBCDADBCCDAA
010000065001061018001   5383     1    N 15010404040  D  B      B  DCACADADDA     CDDCAC AAB   CA C B C C    AAAD CBB B CADDCC DB C  CBCCDDDDACAADBACDAA
010000066001061018001   5383     1    N 15010416040CDDDCDADCADCBBBDCBBBCBDDAABDAABDDAACBA BDCBCAABDB CDBCDBCADADCDBBBBDCADADADDADDCCABCCDDDDABBDDBACCAA
010000067001061018001   5383     1    N 15010375040C   A A     BCCC AAACBADAACDC ADCCACBAABD DCA A B         DAD DB DCC ADACDCDBDBDCCCCCDC C CA DBDCDAA
010000068001061018001   5383     1    N 15010391040ACDBADADDBCDDBCCABCBCBDDCADCCDADDDAABAABDAABADBDBDDDDDABDAAADBDBBBBBBDDACDCDADBDDCCCCDAACACCDDACCDAA
010000069001061018001   5383     1    N 15010409040BBDBCDDBACACBCCDBABACADDABBCCABCCCABDAABDADCADACBACCBDACCAAADBDBBBBDBCDACDCDBABDDCBCCDCDCBAAADBCCDAA
010000070001061018001   5383     1    N 15011030040CB  ADABD CBBCADDBCACBDDBA B AB   C  DABDADCABAC  D DD  CACAD CBBB    DACDCDBCDDD  CCDAAD CA D   CCB
010000071001061018001   5383     1    N 15011031040CAA   A    BBABDDACDCDDDABBC B*ABDBBCAAB   CA**BBDDAAABDABAD*ABBBCCDDDDAD**AAACACCC**DD*DA*B DCCCCAA
010000072001061018001   5383     1    N 15011010040CC   BA D  DB CDAAAADBDDABCBCAAACCA DAABDA CABADB DDD  CDADAC BBBBBCBBDACDCABBBDBCBCCDDDCBAA DBBCBAA
010000073001061018001   5383     1    N 15011032040CBCBADADCACDBADCDA DDBDDCBCCAAADDADCBAABDADCADACBB  C   BADADDAABBBACCDACDADACCDCCBCCDDDCACDADBACDAA
010000074001061018001   5383     1    N 15011005040CADBABA   DABBADAACADBADABCDCBDDCDA BAA DB  BAAD  CADBB CADAD DBBBBCBBBACDCCBCBDBCBCCDDDBACACDBDCCAA
010000075001061018001   5383     1    N 15011004040CDDBDDACBDCCBDCDDAAACBDDABCDCAABDCBCBAABDACCADACB CDDCABCAAADDDADBBCBDDAC*CCBDBDBCCCCDADDBCAADBDCCAA
010000076001061018001   5383     1    N 15011025040CBCDABAABACBBBCDBAABCACDBACBCCAADDAABBABCAADABBDBDDCDACBDAADDCCBBB BDDDACDBDAACADCCCCDCCDACBBAACCAAD
010000077001061018001   5383     1    N 15011001040     DA C BDCCCDC*CACBDDABBACBBDCCBCDADBDADCADACBBC D     DA ADBBB  AADACDCDB CBCCBCCDADCA AADBD DAA
010000078001061018001   5383     1    N 15011022040AADBBDAADABBCBCDBAADCBDBAABD CBCDCAA ABBDACCABC*BCABBADBDADBDCDABBBDCCDACDCDBABDDCACCDADCBDADDBC*CAA
010000079001061018001   5383     1    N 15011019040D C   ADB CCDD DBBDDCBDDAABCCCDBCCC CA CDA CAACC  ACDCDBABABB BBABBCBCDACCAAACCCCCBCCDCDCABBBDBDC*CB
010000080001061018001   5383     1    N 15011044040CBCBCDACCDBBBBBCCCCACADDABCAAAACDCCBDDABDAACADACBDACDCDACADADBDBDBBBBCDACCA*BDBDACCCCDADDACABDBADBAA
010000081001061018001   5383     1    N 15011034040CACABADBDBCCCCCCCACADBABAACBACADDDBCDAABDADCADADBDCAACABDBDADCDBAABABDDACDCDBCBDBCCCCDACBACCDABACDAC
010000082001061018001   5383     1    N 15011056040C DBADABAACABCCCCAAACBDDCBBDCAAACCA DAABD DC DADD C D BBBADADADBBBBBBCDACDCBBDBDDCCCCDCDDACABDBBDDAC
010000083001061018001   5383     1    N 15011062040CBCBCDDCBC ABA DBBDADBDDAABCACDCCBDBDAAB ADBAABCC CCBDBCC DBD  ADDBDDBDAC C BABBDCCCCDCDCBCA DBD DAA
010000084001061018001   5383     1    N 15011065040CBCB DACB  BBCD CABACBDDBACDCAABCCCCBAABDCDBABABBDCBDBC BAAAD CBABB C DACDCBBABDDCCCCADDCACAAABAABAB
010000085001061018001   5383     1    N 15011054040CBCBAADBDBCDBCBDCBCBCBDCCABB AADD B B A DA CADADB DABADBCADADADABDBBDDDACDCDBCBDACBCCDADCA ACDBDCDDA
010000086001061018001   5383     1    N 15011055040CBCB AABD C BCDCCAADCBDDABCAAAACCCC D ABDA CADACB A   D C DAD DB BBCAADACDABBDBD CBCCDADCABAADBD DAA
010000087001061018001   5383     1    N 15010987040CB C DAA    BDDDDDAACBDDAA*BCCABCCCCDADBDADCADA B A     CACAD ABBBB C DACDA B BDCCBCCDADDACAADBCCDAA
010000088001061018001   5383     1    N 15010959040CADBCCCCDCCBDDDD BCBCBDDBABBBBBBBCCDBA CDBDDBBBAAAADCAABDBDA*ACBBBBAAADACDDDAD*DCCCCCDCAAAAAADBCBBAA
010000089001061018001   5383     1    N 15010988040CADC      C B  DCCABDCDACCBC DACCDACADBCDB DAB    C D D DACAD  BA    DD CCDDBDBD CCCCDA  ACCDDADABAD
010000090001061018001   5383     1    N 15010990040CABBCBABDCCCDACACACCCDDDC      BDDABBAABDAACAABCCC    ABBBDADABACBBACAAACCCBBDBDABDCCDADCABBBDADCCAA
010000091001061018001   5383     1    N 15010994040CABBBCADACBCBADDBCCCCBDDABCDCCBBCCBCDAABDADCABADBADCDCCBDADADADBBBBDCBDACCCDBDBDACCCCDADDADAADDCCDAA
010000092001061018001   5383     1    N 15011000040CDCBDDACADCCACBDCABDCBDDABCACABBCBBCDAABCACCACBCBDACCBCBBBDAACBBBBBABDDACDCDBDBDCCCCCDDDCACDAABBDDAA
010000093001061018001   5383     1    N 15010968040CBCBADBBACCBBACDCAACCBDDAABADCDCCABCDAABDADBADACBADCCBA   DB     BBABDDACDCDADCDCCCCCDADCABAADB  DAA
010000094001061018001   5383     1    N 15010964040ACDADBBBCADDBBCCADDBDBDDAADBCADCAAAADADADAACDABCCACADACCBDCADADBCDBBCADACCBDADCCBCCCCDACDAAAADBDDBAC
010000095001061018001   5383     1    N 15010984040CBCBADABD CBCCDACACACBDDCB BCDBCCCBCDAABDADCADACB D C CBDAAAD DBABBABDDACDCDBDBDCCCCCDBDCACAADBD DAA
010000096001061018001   5383     1    N 15010951040CD B DADCBCBBCDDCACACBDDCBDABDCDBBCCDAABDABCBAACBCCBCBCBDAAACBDBDBBCBCDACDCCADCCCCBCCDADCACAADBDCBAA
010000097001061018001   5383     1    N 15010981040CBC B A B CBB DBDBCACBDDCBCDCAACADCBD ABDA CADADCCABBBCBDACAD DBBBBBBDDACDCBBDBDCCBCCDADCACABDBDCDAA
010000098001061018001   5383     1    N 15010945040CBDBABA DCCCBCDDC CACBDDAACAB  DC  ADA BDACAADACBDD ABB BAABDCCADBBCCDAACDADADBBACCCCDCDAADADDBCCBAA
010000099001061018001   5383     1    N 15010955040CA D DDCCBCBBCCDBDCDCBBBD          DCBABDADCAAACD ADA CCDACADACBBBBDCD*ACBCDADB*  *CCD  A  C A  C CB
010000100001061018001   5383     1    N 15010939040CBCBCDCBBCCCBCDDCAAACBDDABCBCAABCCCABAABAADCADADBDDCBCABCACADADBDBBDDDDACCABBDBDCACCCDADBACACACCCBAA
010000101001061018001   5383     1    N 15010300040CBDBADA C C A  CCACACBD AAC  ACBCA CDAABDADCADACBBA D   DABADAABABDD  DACCDCBDBCCCCCCDAD CAA DBBBAAB
010000102001061018001   5383     1    N 15010308040CA  B A  BB D CBBBABCBAAA          CDDABDABB ACD  CDBBA DBDAD BABCB BADACCDDBDBB CBCCD              
010000103001061018001   5383     1    N 15010354040CAABADAACBCBBCDCCDCADBDDDBCBAAABCCA DAABDA CADCCCDAADDDBCAAADBCBBBBABDDACDADBABDCCBCCDACDDCAADDBCBAC
010000104001061018001   5383     1    N 15010335040BBCBCDACBCCCBCDDDACCDDAAABAACCAADCCCC BBCAACADDDBCCCDBBBAADDDDCBC BBDDDDCDADBCDDCCCCC*BBD*CCBDAACDAB
010000105001061018001   5383     1    N 15010352040CDCBADABDCC DCCACACADBCAAAACBCDBCADBDAACDADCADAD DCBBCDBDDAADCBABBBDBBDACDABBABDADACCDADCBCACABBCCAC
010000106001061018001   5383     1    N 15010357040CCBBDDAAC   BCBACDABC A ABBDDAACADDBCCABDADCAABDBDCCBDCBCCDADACABDDADDDACDCDBDBDDABCCBBAAADDBDBCADAB
010000107001061018001   5383     1    N 15010339040*DDBCCD*BCDCDAADBDBDDBADABDDCDABCABBADACCACCBAACDDCADCADDADADCABBBBCBADACCADBABDACCCCDCDDACADDBACDAA
010000108001061018001   5383     1    N 15010326040C  BADABD   BCDDDADACCDDABCAB BBC B D ABDADBABA B CBD D  DDADADB BBCAADACDABBDBDCBCCCDADCBCBADBDDDAA
010000109001061018001   5383     1    N 15010364040CBDDBD      B DDDAABCBADABBDBBAABBA   ABDA  AAB BDC A DBDADAC CBBBB   DACDA ADBD  CCCD DA CAADBAADAA
010000110001061018001   5383     1    N 15010346040C     A    BDCAB*BBDC DDAB BCCADDBCBDDDCDBACABAABDCDBCACDADCDACBADBCCDBACDADBABCBCCCCDADDCAAADBCADAA
010000111001061018001   5383     1    N 15010312040CCABADD D CCBADACACACBADBCCACABDCCACCDABDADCBDBDBACBBABBBAABDCDBBABCBADACDCDBDBDABBCCCCBCACDCABDDCCA
010000112001061018001   5383     1    N 15010315040ACDBBAAABDCDCDCABAABCADAABACBCDABCBDDDABDCBADABDCADCACBACDCBBCBCBADBBCABCDCDACBDCA ADCABDACBBADCCCAD
010000113001061018001   5383     1    N 15010349040DB   BAACDBCBCCDCDAACBDAABCBACABDCA  ADB  A CCCBBADC CCCBD*BACBBCBBDCCDACDDDADBDCBCCCDDDCACBCABCCDAC
010000114001061018001   5383     1    N 15010323040CBCBADABBBCBBCACCACCCBDDABCAAABCCCCCCAABDADCADACBBDBDDCAAADADADBDBBCAADACDDCBABDCCBCCDADCAAAADBDBDAA
010000115001061018001   5383     1    N 15010322040CA BADAAABCCBCCDCACBDADCABCBCAADCCA DAABDACBBDBD ACBCBDCCAAADACBBBBACCDACDCBAABDBCBCCDCCDCCACDBCDCAA
010000116001061018001   5383     1    N 15010302040CABBADABA CCBCADAADACBDDABBACBAAACADDAABDADCADAABDC D  B ADAD DBABBCCADDCCABABBDDCBCCDADCDCABDBDCDAA
010000117001061018001   5383     1    N 15010301040CBCBADABDBCBBACDCAADCBDDABCDAADBCCCCDAABDADBADADBCCBDCDBDBDACCCBABBBCDDA                          A 
010000118001061018001   5383     1    N 15010924040BBDCDACBDACDBABDABCBC*DDADCBACABBADBDBCBDBADBABBDAABCDAADAABACCBCDDBDDAACAADBABCAABCBCCADAADADBBCDAA
010000119001061018001   5383     1    N 15010921040DBCBADDCDBCBBCDDCAAACBDDCBCDCACBACCCDAABDADCADACBBCDCBABCBAADACBBBBDCDDACDCDBDBDBCBCCDADCACDADBDCCAA
010000120001061018001   5383     1    N 15010870040CBDB D A   CBB DAAAACBDDABBBCABBCAB DA BD DCADBCB        A AC DBBBB C DACDC BDBDCCB*CD DDACAADB CDAA
010000121001061018001   5383     1    N 15010889040CBCBADBCCBDDBC*DAABACBDDAB*BDDABBCADDADDCADCADBDBDDABCDCCDDDAAAB  BBCADDCDADBCDDCCCCCDD*AADAADBDCDAA
010000122001061018001   5383     1    N 15010888040CB B DABD CBACCDCACACADDABCDCAADCDCCDADCDCDCADADBDDABCCBCADADAABDBBCADDACDADBCBDCCBCCDADAADAADCDBDAA
010000123001061018001   5383     1    N 15010886040DBDBADABDCCAD  ADAADDBDDABBBCCADCCACDAABDBCBADADBDCCBBBBDADADADBBBBCADDACDCDADBDCCCCCDADCADBADBAADAA
010000124001061018001   5383     1    N 15010885040  C   A     A  DCACDCBDDABCCCABBCCDCDAABDA   DB B C AACBDAAA  DBBDB   DADDCAADBBDCCCCDADCACABDBDDCAA
010000125001061018001   5383     1    N 15010884040CBDACBACBDBCBD*DCBADCBDDABCCCCCAADACCAABBACCADB*BBCCBBBBDAAADDCBBDBDCDDACCDDACBCCCBCCDDDCADBBDBBDDAA
010000126001061018001   5383     1    N 15010865040CBCDAAC BBCBBBDCCAABCADAABCDCDDBBDCCCBBACBDCDAADCDCDCAACADBAACDBACBADDDACAABBCBCBBACCDCDDACCADCBBBAA
010000127001061018001   5383     1    N 15010928040CBDBABABADCBBCDDCAADCBDBABBDCCDDDCACBAABDACCADABBCDCCCBADADADCDBBBBDCDDACDADADBDDCCCCDDDDBBBADCDCDAC
010000128001061018001   5383     1    N 15010883040BCCDADADDABAACCC ADBC CAABCDCDDBBDC BB C     BBC DCDCBBCDBCDC CBACBDBDDABDDBBDCC  CC   CD CB A  C CB
010000129001061018001   5383     1    N 15010917040CCDDBBACBCBDDADDCAABCBADAABBBBCBBCAACDCACDCCBBABCCCCAABDDAADBCCBBBBBDDAACDDDADDDCBBCCCDADBBACDAAADCB
010000130001061018001   5383     1    N 15010891040CBCBADABDCCBBCCDDABACBDDABCBCADCACCCDAABDADCADACBBCBBBCBAADADADBBBBCBBDACDCBBCBDCCBCCDADCACDADBDBDAA
010000131001061018001   5383     1    N 15010873040BBCBADABDBCCBDDDCBDACADDABDAACCBDDACCDDCDABBADABBBBAADACAADADBCADDCACDDACCADBDBDBAACCAABDACBAAAAAAAA
010000132001061018001   5383     1    N 15010874040CDDAABABDCCCACCADDAACADCBBCDCBACADDAADABDABAABAADAACCCAACADDDCDBBBABCDCBABCABCDCBABCDCBABCDCBABCDCBA
010000133001061018001   5383     1    N 15010881040 D B DA AB BBB CAACACBDDABCBAAABCCBCDAABDADCADACCBDACCABBADACCCBCBB CBDACDCBA BDBBACCDCDCBCABDADCAAC
010000134001061018001   5383     1    N 15010897040CADBBDACBCDBBCBACACBCBDDAACBCABBDCBADAABDCBBADACB CCBCCBCAADDCDABDBDCDDCCCDCBCDCCCCCCDADDACBBDBCCDCA
010000135001061018001   5383     1    N 15011303040BBCBDDABDDCBBCDCCABDDBDDBBCAAADDCCCCDAABDADCDDCCB DCACCDCAAADBCBBBDAAADACDCCBBBDCCBCCDACCACACDBCCDAA
010000136001061018001   5383     1    N 15011273040ABCCA AAC   BCDDAACADBDDCBCBCADCCAA  AAB ADCADACB CBBACBCDAADCDB BBC  DACDCB DB    CCD  CA A D     A
010000137001061018001   5383     1    N 15011294040DAADCDAABDACAADDCBCDDBBAAADAADDDACBBA ABDABBAABCBDDADAB DBBAAABABDBCCBDACDABBBBDDCCCCDDDDADBDDBCCAAC
010000138001061018001   5383     1    N 15011307040CC  A A     B  BDBCACBADAAAD DADDDB DAABDCDCADAD  CBDDBBBADADADBDBBD ADACCC*BABDDCBCCDADDCCCBDBDCDAB
010000139001061018001   5383     1    N 15011264040AADB AABDDBBBCDDCABDCBDDABCDBAABCCBCDAABDABCADBCBBCBCDBBDDAACCCBBBB C DACDADADBCCCCCCDDDCDCAADBACCAA
010000140001061018001   5383     1    N 15011336040CBDBABABBBCBBCCDAACADBADABCDCAACCCCBDAABDADBBDACBCCADADADDDACCDBABCAADDABCCBBDBDBCBCCDADBAAAADBCDDAA
010000141001061018001   5383     1    N 15011290040CBDADDABABCCBACDCACACBDDABCACAABCCCCBDDBDADCADACBCDCCCBBCBCADCDABCBCCCDACCADBABDCCCCCDADCACAADBDADAA
010000142001061018001   5383     1    N 15011287040CCCDBAACACDBBCDDCBACCBDACBCBCCABDCBCCCCCCAAADBBBBBCBDCABDBBACBCACBBACCAACCADADBDDCBCCDBADBCBADBCCCCB
010000143001061018001   5383     1    N 15011268040AA B A BC B BCDD   D   BCBAC AACD   DAABDADBADADB       D   D  BAB    D C     BBCCBCCD CCA C DBCCBAA
010000144001061018001   5383     1    N 15011269040CB B   B    BC   BACDBB AA B   BD   D ABDADBADABB B       DA   BBD    DACCA A     CCCD DDAC  DB C AA
010000145001061018001   5383     1    N 15011270040CBDBAAACBBCBBCCDBACCDBDDABCDCABAACCDDAABDADCADACBCBABBBBDDDADBDBCBBBAADACDABBDBDCCBCCDADDACABDBBCDAA
010000146001061018001   5383     1    N 15011234040CBADBDADDAACBCDDCAADCBDDCACBACBDCACBBBABDABCADBBDBCDCCCBAADADCDBADBCABDACDCDBDCDCCBCCDADCADAADBDCDAB
010000147001061018001   5383     1    N 15011236040CBBBDDACABCDBCCCCACACBDDABCACADBCCACDDABBADCADACBBDDBBBBDBDADCDBABDDBCDACDCBBABDCCCCCDADCACCADBDBDAA
010000148001061018001   5383     1    N 15011241040BBDBADDAACCBBCDDCAAADBDCCBCCCAADCCBDB*ABDADBADACBBDCCADBDBDAD DBCBBCBCDACDADBDBD  CCCB              
010000149001061018001   5383     1    N 15011247040   BADA C C BCC CAADDBDDABCBDAACCCACDAABDA CADBC  DBDCBB BDAD DBBBB C AACD DBDBD  BCCDADCA AADBDCDAA
010000150001061018001   5383     1    N 15011253040CCCBA AAB C BBCDCACACBDDCCDC C ADDCBDAABDADCADADB C   ABCDDAD ABABB ABDACC CBDCDBCCCCDDCCADACDBCDCAA
010000151001061018001   5383     1    N 15011256040BABBADAACBCCBDCCABCBCBDDABDDBDADCBBCDABBCACBAACCDACCBBCBDAAADCABBBBCDADACDBBADBDCCCCCDBD ACABDBBCDAA
010000152001061018001   5383     1    N 15011278040               ACABACBDDCAAAACBCDAACBAAB  DCADA B     CBBBDAD DBBCBDDDDACCCDBABDCCBCCDCADAAAADBCCDCA
010000153001061018001   5383     1    N 15011277040CBCBA ABC CABCCDCACDDBDDBACC CACDAD DAA  ADCADACBDC D ABCADAACCBABBACBDACDABBDBDBCBCCDAAABDACDBDCDAA
010000154001061018001   5383     1    N 15011262040DDDBBAABDACBACCCDAABCBDDABCBBADBDAACDAABDADCADADBDCCAACBCAAADBDBBBBCCADACCCCBABCCCBCCDBDDBCADDBDDDAA
010000155001061018001   5383     1    N 15011308040CBCBADABD C ACCDCABACBDDABCBCABCCCBCDAABDADBADACBDDBBBABDADADBDBABBDBBDACCCBBDBDCCBCCDADCACDADBDCDAA
010000156001061018001   5383     1    N 15011133040CADB DDBA  CBABCCACACBD CAABCAABCDCCDAABDCDCADADB CADDACBAABADDBCCBABDDACBCAADBDCCBCCDACC          A
010000157001061018001   5383     1    N 15011112040CBDBADABD C BCDCCACACADDDAABCDABBBCADAABDADCADADBBD   DADAAADBDBAABDACDACDBDADBDADDBCDCDCADDADBCCDAA
010000158001061018001   5383     1    N 15011110040BCBBACBCDCBABACACBACCCDAACBCBCBCBAACDBACCBCBABBBBCCBCCABCBBAACCABDBBDBDACCADBDBDCCDCAACDDACABDBCBDCC
010000159001061018001   5383     1    N 15011088040DC B AA  BC BA DCACDCBDDABCDCAABCAB          AA  DDCB BBDCAADACBBBBC  DACDCDBDBDC CCCDAADACAADBCDCAA
010000160001061018001   5383     1    N 15011097040CBBADDA D   BCCDBAABCCDDA                   BBBC  CDD ABCAAAACCBBDBBCD AC  D   D  CCAD              
010000161001061018001   5383     1    N 15011106040CCCBADACA C  CCCCACACBDDABCACADCAAACDAABDADCADACBBDCBC CBADADCDB BBBCBDACDCBBABDCCBCCDBDCA AADBCCCAA
010000162001061018001   5383     1    N 15011131040DADBABACCCCAAAACCAAACBDDAACCAAADAAACDAABDBBCADADBADABDAADADABBCBBBBABDDACAADBDBBDCACCDDADDCBABABCAAB
010000163001061018001   5383     1    N 15011103040CBCB AABD CDADBCBACDCBDDABCBCAAACDCCDAABDADCADADBDCDCCDACADADCBBBBBDACDACDABBDBDCCBCCDCDCABCADBBCDAA
010000164001061018001   5383     1    N 15011078040ACDA D CD C   D   ABCBD A  C CADDCA CDBB A CA  C  C   DACBDAD CAB B   DACDCDBDBDB B CD DCB  BD D D A
010000165001061018001   5383     1    N 15011080040DDCAADABCABBDCDDBDCACBDDABCDABCC   CABCBDDACDCADCBCBDAABDAAACADBABBDCCDACDCCBDBDDACCCDACCAAAAADDACAB
010000166001061018001   5383     1    N 15011079040CBCBBDD   CBDACDCACADBDDBBAACABBCDACDAABDADCADACBCDCDADCDADADCDBBBBACDDACDCDBCBDBCCCCDADCADAADBDCCAC
010000167001061018001   5383     1    N 15011073040DCDB DAAD      CCACADBDDAADCCCDCDDA DAA      DA  ACACB   ADAD  BBB  AADACD C CDCCCC CBCCDA A DA CDAA
010000168001061018001   5383     1    N 15011116040DBADABAADACBCBBACAABCADCBCDAACBDDACBAACBDBACAABCBAACDBCACDBC B DCDCA A                              
010000169001061018001   5383     1    N 15011127040AC B DAABADB DDBCADBCAADAADCCCADCDC CAC   D  AACB C C A D D DDDBCBB   DA   AA BD CCCCD DBBDACABCBCAA
010000170001061018001   5383     1    N 15011118040DBCBADACA CB CDDBACCDBDDABCB  BC  C      A CADAD  C D    AAD  DBDBB  ADACD   DBDBCBCCDADCADBADBDB AA
010000171001061018001   5383     1    N 15011128040CADDDAA BBBAAAAAAACCCBDDAAAC*BDCDDCCCACC   BAAA   C CCCBDADADDDBBBBDB DACCCBBABDAACCCDBABBAAADBDBBAB
010000172001061018001   5383     1    N 15011194040CBDCADA*D BDBCC*DBAABBD AAABAACDACABDDA       B          BDAD DBDBBCADDACDADBCBDCCCCCDAAABDADDBDCAAC
010000173001061018001   5383     1    N 15011193040CBDCDDADD*C*AACCC A*CAD AADCCCAC*DADAACADCBBAABCCAACDDBACBADDACBADDCAADACDAD*ABDABCCCCBBCDCA*DBCCD*B
010000174001061018001   5383     1    N 15011206040CADDDCABDADABCADCBCACBDDBACACAADBDBDDADCCAADACACBBDCCBADDADCDCCBBCDDCADACDCDACDCCDBCCDCDCACAADBDCAAA
010000175001061018001   5383     1    N 15011188040CCDACBACBABBABBDDBDACAADAACCBCCCADACBCACDDBBDABBDDBCCCAAACDA*ACBBDBDCDDACCACBAABCBCCDABCDBCDBDABCAAB
010000176001061018001   5383     1    N 15011165040CAAADD C   D AD*DAADCBAB*C D AA B A D  C    D  D  C   DCCADAA DBBCBADADACDCBBABD CCCCDABDA ACDB DDAA
010000177001061018001   5383     1    N 15011169040CBCBADABADCBCCCDDAAACBDDABCAABBCADACCAABDADCADADBACCDCBADDDACBDBABBBBADACBCBBDDDCCBCCDADCAAAADBDDDAA
010000178001061018001   5383     1    N 15011181040CBCDADABDBBCBCCDCBBDCBDDABCBCCBBDBBADAABDADCADBCBCCCDBDBDBAADCDBABBCBDDACDABBDBDBDCCCDBDDACBCDDADCAB
010000179001061018001   5383     1    N 15011180040CDABADABCBCCBACDABAACBDDABCAACAABDCCBADBDBDCADACBDCCD BB BCBD CB BBACDDACDABBDDDCCBCCD DDACAADBACBCC
010000180001061018001   5383     1    N 15011195040CBDBADABDAC BCCAB DACBDDABCDCAABDCACDAABDADCADACBCC C BBDCDAD CBABBDBDDACDABBD*DBABCCDADCACBCAB CDAC
010000181001061018001   5383     1    N 15011150040CBBBBDABBBCBBCCADCDACBDDBBBBACDCDDDCDAABDADCADACBBCCBACCCDBDDCABBBBDDDDACDCBADBDCBBCCDBDDDDDADBCCBAA
010000182001061018001   5383     1    N 15011158040CCCBDAABA CBBCADCACACBDDCBCACABDCDDCDAABDADCADABBACDDCBCDAAACCDBDBBBCDDACDCDBCBDCCBCCDCDCACAADBDCDAA
010000183001061018001   5383     1    N 15011143040AADBBAA ABCBBBCABACA*BDDAACCAABBCCABDAABDBDCADACB C D   DBDD  DBABB  DDACAABBDDDCCCCCDDDCA AADBDCDAA
010000184001061018001   5383     1    N 15011141040ABCCCCBCBCBDCCDDDBCBCDADCADCADDCDCDBACCCBDDCCABCBCCACBCCBBCDCABCBBBBCCDACA                          
010000185001061018001   5383     1    N 15011209040CA D AA    CAA DCBAADDADAB CCC BDBDBA     B BAA B CCADBCDAABCACBBCBCCDDCDABCAAACDCCCCCCDDCCB CAC CAB
010000186001061018001   5383     1    N 15011223040ABCBAAAACDC D DCCCCBCADDA    AA   C D BBDA  ABABA D CC BBADAB CBA B A DACDCD  BC CCCADD DB BD       
010000187001061018001   5383     1    N 15011137040CBBCBDABDBDBBCCDCACADBDDABCDCABDBBACDAABDADCADACBBCCDBBBAADADACBCBBDCDDACDADBABDCCBCCDADDBCAADBDBDAA
010000188001061018001   5383     1    N 15011153040CBDBBDAACCCDBCDDCACADADDBAAACABDCCACDABBDADCADACBACCDCBBCDAADACBBBBCCCDACCCDADCDBCCCCDADDACAADBCDDAA
010000189001061018001   5383     1    N 15011457040CBCBADABD CBACCCCABACBDDCACD ACBC ACD ABDADCADADBBCCB C CADADADBDBBCCCDAC*CBBCBDACACCDADCABAADBDDDAA
010000190001061018001   5383     1    N 15011460040DDDADBACDACDBBCCBBABCBDDCACABBDDACABDDCCABABAABBBDCCDDCBDADADDCABBBCDDDACCADADDCDCACCDCADAABCDABACAA
010000191001061018001   5383     1    N 15011450040BADCCBAADDDDDCACBBDDCBACCACBADCBDCDCCBBCD AC AADDCCBAAABDAAADCCABDBACADACDCDBACBCCCCCCCACACCCDBCBAAB
010000192001061018001   5383     1    N 15011446040CB   BA   CDBC D ACACBDDABCDAABCCCB DA BDA    B           DAD DB DB   DACDC BDB ACCCCD D BCAADB CBAA
010000193001061018001   5383     1    N 15011445040CD BADABBDCABCCDCAAACBDDABCBCABCCBBCBADBDAD*ADABBAD  CD AA AABCBD BBCBDACDABACBCC BCCDADCABAADBDCCAA
010000194001061018001   5383     1    N 15011453040CB        C   CABAABCBACBACBCBADDCBC AABDA CADBBB A B DA CDABBCABDB   DACDCDBCBDC CCADADBACCBDD ACAB
010000195001061018001   5383     1    N 15011452040DDDBBDADBCCABCDCAABACBDDABCACCBBCCACDAABDADBADADBBCCACDDCADAD DBCBBABADACCACBDCCBBBCCDCCCABAAABDDDAA
010000196001061018001   5383     1    N 15011405040BDDDDAABCCBBABDCAACBCBDCBBBBCBBADAB               C   AACBA A CAA                  C D ACA   A    C 
010000197001061018001   5383     1    N 15011406040      A  A    CDCADACCDDCBDBACCDC   B ABD  BDDACCAC CA   AD   CBB B DDDACD DBACDCACCCDDADA B DBCC DA
010000198001061018001   5383     1    N 15011398040  DB DA     BCDDCAADCBDDABCDCCADCAACBAAB AACADADB CACCCACACADCDBAABDBADACDCDAABD CCCCDADCBCA DB CDAA
010000199001061018001   5383     1    N 15011409040CBCBADABBBCBBCCDCAAACBDDABCDCAADCCCCDAABDADCADADBBBCBCACDADAACDBBBBBAADACDCBBABDCCCCCDADCABAADBDCC  
010000200001061018001   5383     1    N 15011431040DDCBADAADDBBBCCDCACBCBDDABCCCBBDCAACDAABDADCBDACABCADCCDDDDADADBABBCBBDACDDBBDBDCCBCCDADBACAADBDCDAA
010000201001061018001   5383     1    N 15011438040CADCBDABDDCACCCCCDDBCBDDCBCDDBBBCCAACABCCBBCADBDBCCDACDCDAADDBDBCABDBDDACDCBBDCDADBCCABDDACABDBDDBAA
010000202001061018001   5383     1    N 15011441040ACCDADABCACDBAACABAACBDDCBCACBABCACCDAABDADCADACBDDBABBBDBDADCDBABBDCCDACDCDBDDDCCBCCDADCACABDBDCDAA
010000203001061018001   5383     1    N 15011442040CBDB DA D C A CACADACBDDABCACADCBCACDAABDADCADADB CBDAA DADADDDBBBBDBDDACDADBDBDACCCCDADDACDADBADDAB
010000204001061018001   5383     1    N 15011435040CA B AABB CBBCDDAABDCBDDABBD CDBACBCDAABDADCADA BDDCDABBDAAADACBABBCDADACDCBBDDBCCB*CD DDAA         
010000205001061018001   5383     1    N 15011430040CBCBDDABCBCCBCDC ACBDBDDCBCCAABCCDDCDAABDADBADACB C DCABDBDADCDBBBBBDCDACDCBBABDCCCCCDADDAAAADBDDDAA
010000206001061018001   5383     1    N 15011426040CA CDDBADCABCB DBACBCBDDCBABCBBDDABADACCBADB*DABADCDDAADDBDADADBBBBCCADCCDADBCBDA*ACCDADCBDADDBACDAC
010000207001061018001   5383     1    N 15011419040CBCBADABDBCBBCCDCACDCBDDABCACAADCCACDAABDADCADACBBDACBBACACADADBABBBBDDACDCBACBDCDCCCDBDCDCAA*BBCDAA
010000208001061018001   5383     1    N 15011417040DABAADDBCBCBDCDCCACACBDDABCACABCCCACDAABDADCADBCBDDABCCBDADADADBABBCBBDACCCBBDBDDCACCDBDCABAADBDBDAB
010000209001061018001   5383     1    N 15011428040BBCBADABDCBBBCBDBADACBDDBBCACCDBCCBCCAABCADCADADBDCCBACBCAAACADBCBDBCCDCCDCBADBDCCBCCDADCACAADBDCDAA
010000210001061018001   5383     1    N 15011420040CDCBBDABBBBBBBCCCBCCCBBDABCCCBBBABC BAABDADCADADBCDCBBCBDCDABCCBBBBAAADACCDDBDBDACACCDCCCABADABDCBAA
010000211001061018001   5383     1    N 15011380040CBCBADDBDBCBBCADCACDCBDDABACACBDDBBCDAABDADCADACBBCCDCBDDADADADBACBCBDDACCABBDBDCCCCCDCCDACCADBCCCAA
010000212001061018001   5383     1    N 15011381040CBDBADABBCCCBCDCCACACBCDBBCACABACDACDAABDADCADACBDCCDCDADDDADCDBABBABBDACDCDBDBDBCBCCDADCBDACABBCDAA
010000213001061018001   5383     1    N 15011373040CA   B    C B CCBBCBCBDDCA    AD CA   AB    A AC  C   C AAAABDAB  B   DACCCABDBBC CCCAAAD  A DB DCBC
010000214001061018001   5383     1    N 15011384040B  B  D     B DCDDDCCBDDAC   C B   CCDCBDA BCABBA DBB BDCADAD BBABBCACDACCCBBDBD ABDCA ACDCCADBCCCCB
010000215001061018001   5383     1    N 15011385040CACBCDACDACCBBDCABCCCBDBAADC BCDD AAAABBCCCCBBCCCBAA AD   DAD CBACB   DACDCBBDBD  CCCDCCD AA A  DDCA
010000216001061018001   5383     1    N 15011365040CBCB DBBDBCBBCCDCAADCBDDABCCCADDCCACDAABDADCBDACBDCDDCDBAADACACBBBBDDDDACDABADBDBDBCCDADCADDADBDDDAA
010000217001061018001   5383     1    N 15010510040CA      A   B  CBAAACBDDDBCDCABBACC D A D    DADD CADACACADBDCDBBBBACADACACBADCDCCBCCDADCACACDBDBDAA
010000218001061018001   5383     1    N 15010511040C  B DA A   BC CCACACBDDBACACDCCC BCBAABDADC DABBACBCBC DBDAD CBABB BDDCCCCDBACDCCCCCDDDCBCABDBCCCAA
010000219001061018001   5383     1    N 15010512040CACBAAA D CAAC CCBDACAADABCB ADDDBDCDAABDADCADACBAA   B AADCD DBDB  CDDACDCCBABDCCCCCDADBBCAADBDBCAA
010000220001061018001   5383     1    N 15010513040   B BA    BC  DCACACBDDBBCA AABC  CDAABDBBCADADB B D C   AAD CBBBB CDBACC BADBCCCBCCD DAACB DB AAAA
010000221001061018001   5383     1    N 15010520040CAACCDABBBBACBBCDCBACBCBBCDCCCCBBADCCDABBABBABBBBACCDCAABBAAD DBDBBBCCBACDDBADBDCCBCCCBDBAAADDACACCB
010000222001061018001   5383     1    N 15010526040CBDBAA*BACCBBADDCAACCBDBB*BDDCCDDDCCADA                  BAAD CAB BA  DA                            
010000223001061018001   5383     1    N 15010528040CBD DCABD  CBCCDCAAACBDDBACCCB  AAACDB BAABAAABCBBDBDAACBACAACABBBBCCADACDADADCCBCCCCD DCADA DBDCCAA
010000224001061018001   5383     1    N 15010532040CA C BB D      CABADDBDDAADBBCADADDBCBBBDACBABACCBCCBBCBDADADADBBBBBBCDACDCDBCBDCCCCCDDDAACCAADCBDCB
010000225001061018001   5383     1    N 15010497040CBCBAAABDACBBCCCCAADCBDDCBCACAACCCABCAABDCDCBDACBDCBDCCCC DAADBCBBBBBCBACD C      CCCD DD  D D    AA
010000226001061018001   5383     1    N 15010492040CBDAADA  D ABCDDDBAADBDDAADACAD CDCDCAABDBABC AB  AC DA AA    CBBBBABCDACCCBBDBDCCCCCDADCABAADBACCAA
010000227001061018001   5383     1    N 15010503040DCCBAAABACCDACACDAAACBDDABDBCABDCCDCDAABDADCADACBCDBBCCBDBDADCCBAABDBCDACCCDACBDCCBCCDADCADAADBDCCAA
010000228001061018001   5383     1    N 15010500040CBDBDBDBBADCBCDACBAACCABBCBABABABCAACCBBCCABABACBDADDCABCDAADBCBADDDCDAACCADADBCDACCCCAAAACABDACAACB
010000229001061018001   5383     1    N 15010495040            B  DBBCDCBD AADBAABBBAB A AB  DBBDABA DDCDBCDADADBCBBABCCDDACDCDADBDC C                 
010000230001061018001   5383     1    N 15010488040CBDBAAACDDCCBCCDBACACCACABDBACDDDCBBDAABDACCABABBBDDBCCCAAADBBCBADBDBDDACDADADBDCCCCCDAACABBBDBBDDAB
010000231001061018001   5383     1    N 15010489040CCCBAAABDBCAACCDCACACBDDABCACABBCCACDAAB ADCADACB DDBCABCACADACBBBBAD DACDCBB BDCC CCDCDCAAAAABDCDAA
010000232001061018001   5383     1    N 15010491040CBCBADAABCCDDCDDCADADBDDBBCDCADDBABCDAABDACBADACBBCDCCDBCBDBDADBCBBCCBDACDADBDBDBCBCCDAACACACDBCCDAA
010000233001061018001   5383     1    N 15010484040  CB        BC CDADBCADBABCB AB AAC DAABDADCADB B       DADBC AB CB   DAC     BBCCBCCDBABACC DB CDAA
010000234001061018001   5383     1    N 15010465040CBCC  A        CCBABCBDDABBCAADDDCCC AABDAABADA*B DD AA  DDBD CBB AAAADACCCDDCCDCCBCCD DDAAAADBBCCAA
010000235001061018001   5383     1    N 15010474040CBDDADDADACBDCCDAAADCBDCACBABDCABD ABDBBDABBAABCBCCADCDCDADACDCAABCBC*ACBADDABBDCABCCACBDACBACDCADCD
010000236001061018001   5383     1    N 15010478040            DDDDCBBCCBDDAAAACBABDDA B  B  BBACBC    D  C  AADCCBABBBB D CDADBDBDABCCCAADDAAAADDDDCAA
010000237001061018001   5383     1    N 15010471040CBDDADACDDD*BCDBCABCCBDBAACBABADDDADDDABDCDDADCCAADBBCDACADADCCBBBBCCCDACACDBDBDCCDCDBCCDACADDCCCCDB
010000238001061018001   5383     1    N 15010468040CBCCBBABDBCBBBDCDACACBDDABCBBABDDCBCDAABDAACBDACBADCDCCBDADADADBABBDBBDACDCCBBBDCCBCCDADCACAADBDCDAA
010000239001061018001   5383     1    N 15010460040CBBBADACDCCACCCADABADBDDCBCBCAAACAA  AABDADCADACBDACDBCADBAAC DBABBCACDACDBBBDBDBDCCCCADAABABDBDDDAA
010000240001061018001   5383     1    N 15010455040DCCBBADBACCBDABCCBDBCDDDDACDADABCCACCCABDCDCADCDBACBDAABDCDBDBCACBBAADDACDADBABCBCCCCDAADAABADBBCAAA
010000241001061018001   5383     1    N 15010462040CBDBADA BB D   CCBC DBDDAA    D CA CDAABDADDAADDBACBB D DBCAD DBBBB CBDACDCDBDBDCBBCCDADCACAADBDCDAA
010000242001061018001   5383     1    N 15010463040CADB DD B   D  CDAAACBDDABD CDCBB  CDAABDA CADACBBD   ABBADACCABC BB BDACDC BDBDCCBCCDADCAAAADBDCDAA
010000243001061018001   5383     1    N 15010451040CBDAADABBBCCBCDDCAADCDDAABABCDADDAACCCCCDAAAAAACCDDBBBDABAAADDDBABBCCADACDCDADBDBCCCCCCADACDCDDCACAB
010000244001061018001   5383     1    N 15011346040CCCBCCABCCCCDCDDCDBACBDDABCCAADBCABCDAABDCC ABAC DDACAADDABDD CBACBDCDDACDCBAABCBCCCCDBDDDDCBDABCAAC
010000245001061018001   5383     1    N 15011351040CCDAADACBBBBACDDCACDCBDDCBCCCDBBCAACCAABDADCADBDBBCDDCABDBDACADBAABDCCDACDABBDBDACCCCDDDAACABDBCCDAA
010000246001061018001   5383     1    N 15011352040CBCBADABD CBBC DCDCACBDDABCD CDBCCBCDAABDADCADACBACCDACDDAAADADBABBBDADACCCDBDCDDCBCCDBDCBCABDBDDCAA
010000247001061018001   5383     1    N 15011354040CBDCADA D CDBCCADDCBCBDDACBCBB     BDDBBDBDABBBBCDCBBBABCBDADBCBDCBCCCDACDCDBBBDCCCCCDBADACBADBCDCCB
010000248001061018001   5383     1    N 15011360040CBDBBDCCD C BCCDDBAADBD AADA A BB ADD ABDAACADAC  AACBDDDBABD  BBAB CA ACCCADBBDCADCCDCBCACBCDCBACBD
010000249001061018001   5383     1    N 15011358040CDCBADABDACDBCDCCACACBDDABCBCABCCBBCDAABDADCADADBACCCCDBDBAADACBDBBDACDACDCDBDBDCCBCCDCDCDBAADBDBDAA
010000250001061018001   5383     1    N 15010449040DADBDDADCACABDBAADCBCCDDACCDCCBCACDDABDACCBBDABAADDBBCACDBDADCBBAABBCDDACDDDA*BDDABCCC B CBCCBCCC BA
010000251001061018001   5383     1    N 15010436040AADBBDADDB*BBCDCCACDDBDDCBABBAADCCBDDAABCADCADADBCCBCCABCADBDCCBBBBBCADACDACBDCBBCCCCDCDCACABDBDDDAA
010000252001061018001   5383     1    N 15010434040CAD  D BB CBBBCDCACACBDDCCDAC AAACADDAABDABCABBDB D   C   AAD BBBCB C DACDCBAABDDCBCCD DDA *ADBC DAB
010000253001061018001   5383     1    N 15010448040C  B DAB  CBBCCCD BDCBD AA B A B  CCBAABDADCADA   C D    ADAA CBDDB   DACDC A DD CBCCC DDACACDBCCDAA
010000254001061018001   5383     1    N 15010435040AA B  A   BBB  DCAC CBDDAAABBA  CC   AA  AD   B        AACAAD  BBBB CDD C A A BD CCCCDADBA  BDDDCCAA
010000255001061018001   5383     1    N 15010441040CBCBADACD C CCCADAAADBDDAA B ADDCCACDAABDADCADACB C BAADDADADCAB BBCBDDACCCDADBDDCBCCDADCACABDBCCDAB
010000256001061018001   5383     1    N 15010845040CBD A ABD CCB CACBAACBDAAACC CADDCACB ABDA CADAC  C BAAA AAAD DB  BAB DACDCBBCBDCC CCDADC BA DBCDCAA
010000257001061018001   5383     1    N 15010849040CBCBADABDACBBCAACAABCBDBC   ACD A*DCDAABDADBADACBABADA BCAAADDBBCBD DDDACDCBAABDCCBCBDCADACBBDC DDAB
010000258001061018001   5383     1    N 15010851040CABBADABCBABBCBDCABACBDDCBCA AB C C   AB   CAA C  C      A  DA ABBBCCDBADDACBA CBCBCCDADCACAADBCCDAA
010000259001061018001   5383     1    N 15010855040CBBBBDABCBCBBCDCCACDDBDAABBBABABDDACDAADDAACADACADAACCAADCAADADBBBBABADACACBACDDDCCCCDDDDBDABDBDCCAA
010000260001061018001   5383     1    N 15010857040ABBBDDABB CBBC*CCAADCBDDBBCACADCCABADABBDADCBDACB CA CCBDACD*CABCBBABBDACDCCA BDBCCCCDADCBCA        
010000261001061018001   5383     1    N 15010859040CB B DABD C ACCDCADACBDDBBCDA BCCAACDAABDADCADADBCD   CBCBDAD CBABBCBADACDCDBABDCCBCCDBDCBCAADBDCDAD
010000262001061018001   5383     1    N 15010862040C CB D  B      DCABAC DDAC DCAAAACACBAABD DCADACBBCD  A D A DABBBBBDBADACDADBBBDCCBCCDADCACAADBAADAA
010000263001061018001   5383     1    N 15010821040DA BDDABABCDBBDDABCDCBDDABAACAADCCACDACBDADBADADB CCDBDBCDAADAABBBDDCCDACDCCAABCCCACCDADBACBDABDCAAB
010000264001061018001   5383     1    N 15010835040CADBDAABDDBDCBDADA*BDBDDABBBAAADDCADDAABDAACAAADBBABCCCBDADADCCBBBBABDDACADDACCCCCCCCDDDDAACDDDDCCAA
010000265001061018001   5383     1    N 15010833040CBCBBAADDBCCBDADCACADBDDABCBCBADDAACCADBDADBABACDBACDACBBAAAACCBCDBCBADACADDADBCABCCCDDDDACABDBACDAA
010000266001061018001   5383     1    N 15010761040BDDBCBDBACCCBCCDBACBCBDBAADBABBCCAACDAABDBCCADADBDACCCBDDBDADACBCBBDBCDACDCDBDBDCBACCDCCDBDBBDBCABAC
010000267001061018001   5383     1    N 15010767040CABCDCABDCCCBCCDCAAAC ABACBCDCDABDDBBDBDC ACDBB C A BB ACCDA  CAAC    BAC                           
010000268001061018001   5383     1    N 15010768040CBDBAAACDDCBBCCCCAAADBDDABCDCABDBCBCDAABDADCADACBBCCCCBBCADADADBABBDBCDACDCBBDBDBCBCCDADCADABDBDCDAA
010000269001061018001   5383     1    N 15010770040CBCBADABD CDBCCCDAAACBDDABCACAACCCCCDAABDADCADACBBD     CADAD DBBBBCCCDACDCDBDBDCCBCCDADCACAADBDCDAA
010000270001061018001   5383     1    N 15010775040BADBABAABDCDBBCDAAAACBDDCADABBDAACCCAAABDABB ABBBDCCDBBBABDADACBBCBDCBDDCAADAACDCDBCCDADCACADDBACCAA
010000271001061018001   5383     1    N 15010785040CBDBADBCDBCCBCDDDAAADBDDABABCCBDCDABDBACDADCADBDBACADBBBDADADCDBDABCBDDACDABBCBDCCCCCDADCABDADBDCDAA
010000272001061018001   5383     1    N 15010786040CBCB DACABCDBBCDCACBCBDDABBCBAADCDACDAABDADCADADBBCDDBABDDDADADACDBBBDDACDCDBCBDDABCCDBDDACBBDBDCDAB
010000273001061018001   5383     1    N 15010818040CCDBADABD CBBCBDCAADCBDDAAACCAADACACCAABDADCBDADCCCCCCCCCADADBDBBBDDAADACDADBDBDCCCCCDADCACAADBDADAA
010000274001061018001   5383     1    N 15010816040DBDDAAABDBCBBBACDABADBDDCBBACAACCCACDAABDACDADBDCBCBDCDBDBDADCDBBBBDCCDACDCBBDBDACBCCD DDBCABDBBDDAA
010000275001061018001   5383     1    N 15010796040CBC  A    CBCC CBA ADBDD ACDCAADCACD AABD D ADA B C   DB BBBD CBBBB   DACDCBBDBDCCACCD DCBCAADBDCDAA
010000276001061018001   5383     1    N 15010795040CBDDCCAAAAA   CC  C CBD AAAAAABBACAA*DACDCDDA BCBACACAABDADACADBBBBBCADACAADAABDDADDCBBADAABADACABAC
010000277001061018001   5383     1    N 15010792040CD BDAADACDCBCBACACACBDACBCBCAABBCCCDADBD BCABACBDBADCBBDAADDADBBBD CADCCDCDCDDCCABCCDADABCAADBBCBAA
010000278001061018001   5383     1    N 15010809040CBDBADA DBCDBCCDADAACBDDAA ACBADACCCCBABDADCADACBDDADACCCBDBD DBABBCBBDACDCBBDBDBCACCDADCBDAC*BACDAA
010000279001061018001   5383     1    N 15010811040BCCBDBABBC CBCACCABACBA ABC        CDACADADBBBA BBB   BBDADBAAD*ABDCCDDAC D     DCBCCD D  A  DB   AA
010000280001061018001   5383     1    N 15010739040D              DDBABCBABBB            A   A*AABBCACDCABBCABBD CBCD  CDDBDCB AAC  DCCCDBAC CB      AC
010000281001061018001   5383     1    N 15010743040CACBACABDCC BACACAAADBDDABCBCADDCCACDAABB DCBDA B C CBA DBDA  DB BB CCDAC C      CBCCDADCA AADBADDAA
010000282001061018001   5383     1    N 15010742040CDD A ABD   C C CADDCBD A           D D DADCADBC  C   DCDADADACB  B   DACDADBCB  BACCDAADACABDC ACAC
010000283001061018001   5383     1    N 15010747040CDD         B C C BBCBDBACBCBDCBBDADCDDBDA BA B*CBC      ADA            CD DAA*C CBCCDCBDA A D CD AB
010000284001061018001   5383     1    N 15010754040CB B AABABCAACCDCACACBDDAA  CBBDDCBCDAABDADCADACBBCCCADB ADADADABBB ACDACDADBABD CBCCDADCBDA DB CCAA
010000285001061018001   5383     1    N 15010755040BABCBCACCDDBBBBDCACDCBDBABCADBCCBADCCBCCCABDBAACCBDCCBCBDCBDCBCBABBDCADCDCDDABBCBCCCCACAABBBAABBBCAB
010000286001061018001   5383     1    N 15010071040C  B DD D C BCC DB ACBDDABACCAABC B D AB  DCADA           DAD DBDBB  CDACCCBBDBDACBCCD ACA AADBDCDAA
010000287001061018001   5383     1    N 15010062040        A   B  D A BCBDD AABA C  AA DAA   A  DBC   A  C C    A B BB C DACD DA CBCCCCCD ADAAA DBDC CB
010000288001061018001   5383     1    N 15010075040CACBCDAB CCBCCCCCACDCBDDCACCCABDCCCCDAABDADCADAABBCCDBDBDBDADBDBBBBBBBDACDCDBDBDCCBCCDADCACAADBDCDAB
010000289001061018001   5383     1    N 15010074040CBBBCDBBCACABCCCBADACBDDABDACABDACCBDAABDADCADACBCCDDAABDBCADADBABBDCADACCCDBABDBCBCCDACCACAADBDCDAA
010000290001061018001   5383     1    N 15010072040DCDACDACDCBCBADCAAADCBABCCBDBABBDCBACAACCAADBAADC CACAACCADADBDBBBBCBADACDCDBABCDCDCCDCCAADCBABDCBAA
010000291001061018001   5383     1    N 15010033040CBDBADABDDCDBCDDCAAACBDDCCCBCADDCCDCDAABDADCADACBDCCCCCDDAAADCDBDBBACDDACCCBBDBCCCBCCDADCACAADBDCDAA
010000292001061018001   5383     1    N 15010040040CBCB DA C   CC ACACACBDCABCDCAABDCBCDAABDADCADBDBACB C BCADACCDBDCBCCCDCCDDDB BBACCCCDADCBCBBDBDCDAA
010000293001061018001   5383     1    N 15010042040CDBDCBACBDBDDCBDDBCACADCABDCDDADDDAADCABDADCBDBACDCBBABBBADADADBBBBBBBAACCADBCCCACBCCCDCCACACDBCCDCB
010000294001061018001   5383     1    N 15010032040CDCB DA DCCDBCCCCADADBDDABCBCCACDABCDAABDADCADACBCCBDC CAADADADBCB BCBBAD       D BCCDA A B AA B    
010000295001061018001   5383     1    N 15010030040CADBDDBCBACABBBCCDCACBDCCBCDCABCACBCDDDBDADCADADADDCACABCABADBDBCBBCADAACDCDADDDCCCCCDADDACACDDADBAB
010000296001061018001   5383     1    N 15010031040CA          BCCA BCCDBDDA    BBDDDDBCDABDA CABCD  C DCA BADAC CBABBABCDACCADBDBD   CCD BD BDADACA AB
010000297001061018001   5383     1    N 15010037040CDDB DA   C BB DCADDCBDDCBCAACACDABCDADBDADBADA BBCCCCDBDBDAABDBBCBBBADACCDBBABCACBCCDCACACADDBCCCAC
010000298001061018001   5383     1    N 15010059040CCCCBCABBCCCBCBDAAADCBDDACCCCBBCCCBCCACCDADCBDACCCCCCCABCAAADDCABABDCBDACDCDADBDCABCCDADCACAADBBCDAB
010000299001061018001   5383     1    N 15010041040CDCB DDBD CD   DAADADBDDCAABBAABDABDDAABDADCADACBBCACAAADADADADBABBAAADACDCBDBBDDBBCCDACCBCAADBACDAA
010000300001061018001   5383     1    N 15010716040CCDDBCA  C  DDCCBBDCC DDAAABACADDDACACCDDCCCDAADCADCBCCCDCCDB CBCDBDCCDDCDACADBCDCCCCCDCDACCBDACCDDB
010000301001061018001   5383     1    N 15010725040C DDACDCB CABADDCBCBCBDCABCBDAC CCC BAABDADBADBC  BACABBCADAD CBBDDACDDACDCCBADC CBCCDDCBA   BC B CC
010000302001061018001   5383     1    N 15010730040ADDBADABDDCBBDCDDADACBDDCBCACABDCABBDADCDADCADACBBCCDACBCACABADBABBBBBDACDCBBDBDCCBCCDADCACAADBDDDAA
010000303001061018001   5383     1    N 15010719040CDCBBDBCDABCACCDCBDBCBCCAAABCBBDACBCDCABCBDC DACB BCCCBCC*BDDDBBABB CADACACDADBDBACCABAADDDACDD C AA
010000304001061018001   5383     1    N 15010723040CBBDCDABCADBBCCDCBDCCBBDACAABDACACCBCDCCDADBABADBCABCDCADADACAABBCACDBDACDABAABCDB                  
010000305001061018001   5383     1    N 15009992040CBCB AABA CBCCCCBADDDBDDCBACCDBDDADCDABBDADCADADBBCBDCABCADADADBABBABDAACDADADCDDACCCCBDCADA        
010000306001061018001   5383     1    N 15009988040CBCBADABDCBBBCCCDADADBDAABCCBCBACCACDAABDADCADACBBCCDCBBCDAADADBBBBDDADACDCCADBDCCCCCDBDCACDADBDDCAA
010000307001061018001   5383     1    N 15009990040CA  A       B CAABACCAA BBBBCABADCA DBDCDA CADBC*ACBBDBBCADADDCBDDB   DACACCCDBBBB CCCBABBB  AB CCBB
010000308001061018001   5383     1    N 15010011040CCCDBDABCACBCBCDAACACBDDABCDCABBCCBCDAABDBDCADACBCCBDCDADADBBCDBDBBBDADACDCBADBDCCBCCDADAACADDBDCCAA
010000309001061018001   5383     1    N 15010005040CBCBADCBDBCBBCCCCDADCBDDCBCDBAACCBBCDAABDADCADACBCCABADBDAAADADBBBBCBADACDCBBDBDCBBCCDACCBCAADBDCBAA
010000310001061018001   5383     1    N 15009997040BCDBADBADCCABBDDDCADCBCAAABDABADADA BD    DBBAA C CCCCDBDADDCADBCCB AADACDCDAABBBACCCBBADACAADB CBAA
010000311001061018001   5383     1    N 15010018040BAAD DAD BDCCCCDDBADCBDDAABC AADBADCAAACDBABDBABBABCD ABCADAD ABCBBDCDDACABCAADC CCCCDADCACAADBCCBAA
010000312001061018001   5383     1    N 15010014040ACBCBAA     BDBACAADCBDDCABACDADDAABD  CD  DABADA C B CABADC ABBCCBAB DACDCDADBDDCCCCDADDDBBDABDCBCC
010000313001061018001   5383     1    N 15010008040CCCBAAABABCBBCCDCBAACBDDDBCDAAADCCBCDDABDADCADADBDC D ABCADDD DBDBBDCCDACCCDADBDCCCCCDBDCABAADBBCDAA
010000314001061018001   5383     1    N 15010690040CA B AA    ABCDCCAACCBDDAACBCAAACAACDAABDACCACADB  C BABACAADACBCADAAADA DA   BCDCCCCDAACBDADDBBADAA
010000315001061018001   5383     1    N 15010682040CBBBBBABABABBBBCABAACBDDBABAAABDDBCCDAABDADCADACBBCABCBABADAABCBDBBADADACBABBBBDCCBCCDBDBAAAAD*BCBAA
010000316001061018001   5383     1    N 15010685040CDCBBDABACCCBCCCCAADCBDDCBCDCADDCCACCAABDADBADADBDDDDDDDCADADDDBBBBCBBDACDCDBDBACCCCCDDDBBBAADBDCCAA
010000317001061018001   5383     1    N 15010694040 B   DA         AADDCBCDCA BAB DCBB A A D DBADA   A  ACBDADDC DBBCB CDDACDCBADBDD  CCDDD A A D    AA
010000318001061018001   5383     1    N 15010708040CB BADA A      DACAACBDDADDBACABAAACD A     ADADBBCCDDABDAAADADBBBBDCCDACCCDBDBDCABCCDADCACABDBDCDAA
010000319001061018001   5383     1    N 15010692040CABDCBBCABCACDBDCDCBCBADBBCCCBBBBABBDABB*BBBBBBBBB    ABBADADCC*CDBCADDACDCABDBDACBCCCBCCACBBDACBDAC
010000320001061018001   5383     1    N 15010680040CA   BCBADBCBCDABBABCBCBADBCAACADCA CBABCACABACDADDCDBBCACDADABABDBDADDACCADBBBD D CCCB DBDCCDAADACA
010000321001061018001   5383     1    N 15010688040ADDBBBACDBDCBADDBCADCBDCDBDDCABCAAACBAABDDDCBDBCBADCDABBDADADCCBCBBDCDDACDADADBCBCBCCDDDDDAABDBBCAAA
010000322001061018001   5383     1    N 15009891040CBCB DABABCBDCCACBACDBDDDBDDAAACCABCDAABDADCADADBDCCBAACCADADACBDBBCABDBCDCDBDBDDCCCCDACCAADDDBCCDAA
010000323001061018001   5383     1    N 15009869040CB B DA D CACCCDCACACBDDAACBCA CC CCDAABDAC  DA B C         A CB CB   D DC  B DDBCBCCD ADBCA DBD AAA
010000324001061018001   5383     1    N 15009880040D  B AAA  CCBC CDBAACBDDAACDDABBCACCDAABDACCADABB         AADACBDBB   DACDCBADBCCCBCCDADBADAADBDCCAA
010000325001061018001   5383     1    N 15009879040CBCBD ADB   B  ABAC CBBD*CACACBDCDBBCABBDCBCBCBDDB    CBDBAADBCCBDBBC AACCBDB AB C BC DC  *CADADA AC
010000326001061018001   5383     1    N 15009882040CBDDBDCBBDCDB CADACACBDDBAADCBBDDDCCDBABDABBAABBBAAADBACBAADDDDABBBAADDACCCDBACCDCCCCDDAADACBDBBDCAB
010000327001061018001   5383     1    N 15009884040CC D DADD CD   DCACACBDDADBDABDCCABCCADBDADCADADB DBDCBBAAAADBCBABBDBBDACCADBABDCCBCCDADCACAADBCCDAA
010000328001061018001   5383     1    N 15009888040CACCCCACCCCCCCCDCBCACBDDABABCCBDDABCCCCCCCCCADABBCCACCCBCADAACCBBDBCCADACCCDADBBDACCCDADADCABDBCCDAC
010000329001061018001   5383     1    N 15010674040CCCBCAAADCCCCCDDDCDACBDDAACCCADCCDCCDAABDADCADACBDDDBACADBAADDAADBBDCBDCCDCBBDBDCCBCCDADCACAADBDADAA
010000330001061018001   5383     1    N 15010668040CB  AD BD C BACD   AC DDABCCC DDC C    BDADCA  B    D A C DAD DB  B   DABDCDBDB                     
010000331001061018001   5383     1    N 15010675040CAABBBBB  BBBDDD ACADBDDABCBCCABCBACBAABDDDBADAABBCCBCBBCADADBABBBBDCCDACDCDBDBDDCCCCDADDACCADBDCDAA
010000332001061018001   5383     1    N 15010669040DB B AAB  CBDCCDBCADDBDDB    DDBA  CD ABDADCADACBBCCDCDBDADAC DBABB A DCCDCDBDBDAADCCDADCBBDBAB BDAA
010000333001061018001   5383     1    N 15010664040CADBAAAACBCDBCAABAACCBAAAACBCCDCADABBBABDDBBADBDBAACCADCBADCDBCAADBAADADCADDBADBBCD                 
010000334001061018001   5383     1    N 15010672040ABABAAABCBCBBACDAAAACADDAACCCBCDCBDBCAABDABCADBCBACABBBBDDDADBCBBDBABDDACACBAADCDCCCCDCDDDDDDDBDCDAA
010000335001061018001   5383     1    N 15009981040CDCBADABABCCBCCCDACACBDDABCDCABDCDCCDAABDADCADADBBCACCAACAAADADBABBDABDACDCBADBDBCBCCDADCABAADBDCDAB
010000336001061018001   5383     1    N 15009978040AADBADABABCDBCDCCACCCBDDABCDCAADCCCCDAAADADCADACBBCCCCCBBADADACBBBBADADACDABADCDDCACCDADCACABDBBDDAA
010000337001061018001   5383     1    N 15009982040C CB DDB    B  DCADACBDDABCBAAABBABCBAABDADCADADB C BBB CBAAD AB BB   DACDABB BD  BCCDADDB   DB  DAA
010000338001061018001   5383     1    N 15009969040AADBDDACDADDBDBCABDDCBDDABBBADDDCCBCDAABDADCADACBACCDABBAADADAABBBBCBADACDCDBDBDBCCCCDCCDBDAAABBDDAA
010000339001061018001   5383     1    N 15009968040CCDCBBACBCCBDDBDC ABBCDCBDCCBBADDDAAADCBDBDCCBBC DCDBCCDCBDACCCABCAABDDACACDABCCDDCBCDAACBCABAADAAAB
010000340001061018001   5383     1    N 15009965040CA ABBABD CDDDDAB DBCAD A            DABDAB  B        B DDAD    D      AC  DA DC  CCCA  DA   A    A 
010000341001061018001   5383     1    N 15009970040CBDBCDCD CCC   DCAAADBDDAABCCAABDDBCDAABDADCADBCBADABCABDADABDCBBBBAADDACDCDACDDCCBCCDDACABBADACACAB
010000342001061018001   5383     1    N 15010644040CCBBCDABBCCBBCCACACDDBADBBCACAABCCABDCABDADCADADBBCACBBCDDAADCDBDBBCBADACCCBBBBDCCBCCDBDCACAADBDCDAC
010000343001061018001   5383     1    N 15010649040CCD  D BB C B CACBCACDD AAABAABBAABDA ABDA  BAABB DCCA  DAA DACDBC     ACCADAABBBBCCCD BDBDADDCBCCBA
010000344001061018001   5383     1    N 15010643040BBDBAAABBBCCBCDDCCAACBDCAADDBBADDCBBDCAB*ADCADBBDCACAACBABCADBDBBBBDCCDACDCDADBDCCCCCDCDBACBBBBBCB*C
010000345001061018001   5383     1    N 15010645040CB A  A        D ACCCBADCA BCDADAAB DAABD  C DCC         ADAC DBBAB AADACDCDBABD CBCCD DCB B DBACDAB
010000346001061018001   5383     1    N 15010646040CBDBACABDACDD*DDAAAADBDDBAABCAADCABCDAABDAABADACBDCACBBCCADADACAABBCCADACDABBDBC CCCCDBDCAAAADBDCDAB
010000347001061018001   5383     1    N 15010631040ABBBADABBCCCBCDACACADBDACCBBABCDABCDAAABBBCCDDADDDCCDDAACDAADACBBBBDCDDACDCBBDBDACBCCDDDDABADDBACAAA
010000348001061018001   5383     1    N 15009956040CDDD DABBCCBCCACCACACBDDCACDCABCCCBCCAABDADCADACBDCDDCCBBACBDDAAAAC CDDDDCADACBBCCBCCDADCACAADBDCCAA
010000349001061018001   5383     1    N 15009941040CCABCCABC   BB CBACDCBAD ABABDDBACBCDAB  B CBCB   C   CB ADADAABDCDCB*DACDC BABDBCBCCDACDA A DBCCBA*
010000350001061018001   5383     1    N 15009962040CBDAADABCCC BCCDAAAACBCDBBBACABADCBCDAABDADCADBDBDCCC CBDAAADBDBABBCBDDACDCBBDBDDACCCDDDAACA DBADDAA
010000351001061018001   5383     1    N 15009945040CBCDBDABADBBBDCDCBCACBDDCBADCAABCDCCDAABDADCADACBACCDDDBDADADCDBBBBCCCDACDADBDCDDCCCCDBDDBDACDBBDDAC
010000352001061018001   5383     1    N 15009950040CBDD DA     C CAABDACCCDADCBADBDACAABDBCDAABABCBDDDBCBBDCACADBCBABDACDDACDDDADBDACCCDCCDDAACCAABACBB
010000353001061018001   5383     1    N 15009955040C DD D        DDACBBDCDDC          BD AC C  C     C C  DDBDADB AA    DA CAAA  DC CCBBB CDCC  * BC A 
010000354001061018001   5383     1    N 15009953040 B BAAA B   BCCDCAAACBDDCBCACAABCAA DAABDADCADACBBC     DAAACBABBBB CDDACCCCBABCC CCCDDDDACACDBBBDAC
010000355001061018001   5383     1    N 15009960040CBCBADD  D B CDADDCADBDDABCBCDCCCCBCDAABD DCADAC  C C A DCDAD ABBBBBBBDACDCBB BDCCCCCDADCA BADBCCCAA
010000356001061018001   5383     1    N 15009946040DBCBBCACBBBBBBBACBCBCB*DAAABACADABCCCABBBBBAAABABBAAAAABDAAAAACAAABAAADACDDDAABDDCCCCDCDBBCBBDBDDDAA
010000357001061018001   5383     1    N 15010608040CBCBADABBCCCBACDBBADCCABABBDACDBBAACDAABDADCAAACBADCB*ABCADADDCBBBBACBDACDABBABDAACCCDDACACCCDBACCAB
010000358001061018001   5383     1    N 15010625040AADDCDAADBCDBDCBBAABCCDAABAACCCBBBAADCDCCCAACABBBADDAACCAADAACCBBADABDDACAABAABDBBCDAABADACCBCACABDB
010000359001061018001   5383     1    N 15010607040ABC  BABD  B  CDABCDDBDDAADCACACDCA C ABC DBBABB A    B DCAADACBABBDCDDACDD BACC CCCCDCD ACC DCBCBAA
010000360001061018001   5383     1    N 15010612040CB B AABD C DACCBDCCCBDDCABADBADADA BAABDA CAABC  CBBCDDBBDADACBBDB BDDACCADB BDDCCCCDCC ADB D      
010000361001061018001   5383     1    N 15010624040C  B  A     BCDD A CCADDAB  CAAACAC DAAB  CBAAACB A      ADAD  BBBB   DBCDA ADBCB BCCD C A   DB C CA
010000362001061018001   5383     1    N 15010610040CACBCDBCBDDBCCDABCABCBCABCBCABCCDDACABACDBDBABBBACCCDBCBCADADBCBBBBDCDAACDDDBDDDCDBCADBDCABABAACCBAC
010000363001061018001   5383     1    N 15010616040CBDBDBDAA  CBBADAAAACBDDABBDCCBBCDACDAABDADCADACB ADCADDDBCAA CBBBCDCDDACAADA*DBACBCCDADBACBCDBCDBAA
010000364001061018001   5383     1    N 15009929040CCBBADACADCBDCCDCADBDBDDBDAACCDACDCCDADBDADCADADBCCCDABDBADADADBBBBABDDACCABADBDACBCCDADCACAADBDCDAA
010000365001061018001   5383     1    N 15009926040CDCBADABDBCCDCCDAACADBDDCBCCCABBCCBCDAABDADCADACBBCDCCAADAAADCDBDBBBCDDACCCDBBBDBCBCCDADCBDAADBCCDAA
010000366001061018001   5383     1    N 15009933040CBBBAAACDBCABCCBCAA*CADD CACCCDBDDBCDAABDADCADADB BDAAACDADADCCBBBDCBBDACDCDAABDAABCCDABDAAAADCCADAA
010000367001061018001   5383     1    N 15009923040CDDB DAC  C D  C C ACBAAAB CABDCCAC DAAADA  A AC  CBCBCBBCDADBCBBBBDC DCCDACADB BCACCD DCACBBDBCCDAC
010000368001061018001   5383     1    N 15009916040C DDAACCADDBBCCDCACBCBADAADC       AABCBABDCAABCADDABABDCCAACCCBDCB A                               
010000369001061018001   5383     1    N 15009922040CB B  B C CC CDD A ADBDDAACAC B*CAACB BBDADCABA BD        ADDCBBBDB B DACDAD DBDACCCCC A BAA ABBABAA
010000370001061018001   5383     1    N 15009918040CB BADA D CBBCCDCAAADBDDCACACADACDBCDAABDADCADADBBCCCBDBBADADCDBBBBCBDDACCCDBDBDCCBCCDADCACAADBDCDAA
010000371001061018001   5383     1    N 15009921040CBCBADA*  C B  CAACDCBCBABCDAABBCCA D DBDA                DADADBBBBCBDDACDCBBDBDDCBCCDDDDABDDDDDCDCA
010000372001061018001   5383     1    N 15010583040A     C   CD   ACDBAC**DCBBA CAABDA AA BCA BB B       DBDAB A CBBCBCBAB D BDBDABDBBCADACD  C D  A CD
010000373001061018001   5383     1    N 15010601040CBCB A    C BCCDADCDCBDDABCBCABBCCBCDAABDADCADABBBC   ABCADADCCBBCB  BDAC CCABBDCACCCDADCAABDDBCCCAB
010000374001061018001   5383     1    N 15009911040CBDAAD CA C B CA  ABCDCDA  C           BD DBA                           CC       C C                
010000375001061018001   5383     1    N 15009896040CCCCADADCDCDBCCCDBAACCADAABDCBABADABBDACDADCAABDBDDACBBACADADBBBBCBBBDBACDABBDBDCCDCCCBDCBCDADCCCCDB
010000376001061018001   5383     1    N 15009901040CBCBDAABBBCBBCCDCADACBDDA     BB CACDAABDADCADACBCABDBB B DADCDB BBCBDDACDCDADBDBCBCCDADCBCAADDDDDAA
010000377001061018001   5383     1    N 15009900040CBDDB*ADDCCBBCCDDACBCBBCAACACDCADADCDDABDCDCAAACBBCCDABBCBDADCDBBDBABDDACDDCADBDBCCCCDCADACBADBBCACA
010000378001061018001   5383     1    N 15009899040CCCD AACACBCBDDDCBADDBDAAC BACABDCA CCBCCB CCAB BCA B  BCADBD CA BB CDAACAD   B   CCCDA    A D    AA
010000379001061018001   5383     1    N 15009910040CACCDACBDDCCBDDDCBACCADDCABDBCADDCABBCDABBCBCBABCBCBDCBBCACADB BCBBAAADACCCBABBDCCCCADACCBDDBDCCACCB
010000380001061018001   5383     1    N 15009912040BD   BA   CCDCBBBAABCBDDB                  BDAABC CCDADBAADCD CAB BCCDAACADABADC B CCDAADACB DD CDCC
010000381001061018001   5383     1    N 15009906040CBDB DA C CCBCCDABAACBDDCB B CBDDDBDDAAB ADCADACB B   BBDCAAD BBCBBCCDAACCCDBADD CCCCDCDDACA ACCCCCA
010000382001061018001   5383     1    N 15009915040D         D B  CCA ADBDDDA BCCAB CB ACAAD D BA      C    AAC  CBBCB   DCCCCDABBB CCCC CADA A D   DA*
010000383001061018001   5383     1    N 15009907040               DCACADBDDCABC BCADCC C CB  DCABAD  D       CAD CBBBDACDDACCACBABDDCCCCDDDCADABABDCBAA
010000384001061018001   5383     1    N 15010572040                    B    BCACAABBDC DABBDADCAAACBDDACDBADADADACBBBBBADDACDACBDBDBBCCCBADDACACABCBDAB
010000385001061018001   5383     1    N 15010574040CBCBADABDBCBCADDCDADCACDCBABACA*CBBCBAABDADCADABBAADBDDDBBDACBBBBDBCBDDACDCBBABDDCCCCCAACDBABABABDAB
010000386001061018001   5383     1    N 15010564040   B D  DDCCB CDDBAACADDAB BBCAAACCCDDABDADCADACBDCCBBBACBAADCCBBBBDBABACCADBABDDAACCDCDDACAADDCCDAA
010000387001061018001   5383     1    N 15009717040CBBBADABD CBBBCCAACACBDDABCACAADC ACDAABDADCADACB A      AAAD DABBCBCADACD DB BDCCBCCDADCACAADBDCDAA
010000388001061018001   5383     1    N 15009716040CA B DABA CBBCDDBACACBBDABCC AADCDD    BDA BBDAC   DC   ADDDB CBBB BDDDACDDDBBCBDACCCBACCBDADDBDCDCA
010000389001061018001   5383     1    N 15009722040CADB DABD CBBACDBAADCBDDABAAAABCCCACDAABDADCADACBBBCDAABCADADADBABBDBCDACDCDBCBDCCBCCDADCACAADBDCDAA
010000390001061018001   5383     1    N 15009721040CB BA D DCCBACCACCBDCBDDACAA AA DB  DAABDADCADACBBD     DAAAD CB  B    ACC D  BD  BCCD DCA A D  C AA
010000391001061018001   5383     1    N 15009735040CBBBBAABABCBBACAAAACCAABDAADCACACACCDDDBDAABAABCBCDCBCBBDADADCCABDBDCDDACDACADBDCCACCDCDADDCDDADDBBB
010000392001061018001   5383     1    N 15009739040CB B DA B C BCDD ACADBDACCADCBACDCA A             D B   D AAD CB*BB ADDACDADBABD CACCDCD BDA DBB DCA
010000393001061018001   5383     1    N 15009728040               DCDCDCBDDABCD  ADCCC           A B CBDBA DADADADBABBABCDACDADBCBDCCBCCDADCACA        
010000394001061018001   5383     1    N 15009754040   B DA    BBCBCCAAADBDDABCCCABDCCBDCADB  DBADACB C A A  BAAD ABBBB CDDACCCBABDDCCCCCDADCCAACABCCBAA
010000395001061018001   5383     1    N 15009749040CDD            ABBCADBAADA CADCDD ACC    C  B C B   CAABCADABACBBCBBCDDACDADBABCCCCCCDDACACBADBCACCB
010000396001061018001   5383     1    N 15009753040BDDCBCA  DBBBBBBDABACB BCADCADADDCDADDADDAABAACDAADAB  DCBA D  BA B C DDCDDDBADD CBCCD CDBB ADBACBA 
010000397001061018001   5383     1    N 15009763040CBCBADA A   BCDDCACCCBDAAACACADBCCBCDADBDADCADACBBC BBCDDADADADBDBBBCDDACDCDBDBDCCBCCDBDCACAADBCCDAA
010000398001061018001   5383     1    N 15009761040CADDCD BCB  B CACACACBCDAABABDADAAACD ABDADBADABBACBC DBBADAD DB BBCADDACDCDBABDCCACCDDDDACABDB CDAA
010000399001061018001   5383     1    N 15009756040CDBDBDABBCCCDCCDCBADCBDAABDBCCD D   CDBBDA CABABCCDCBACACDDADACABD    DA       B  CC DDC  A   AC   C
010000400001061018001   5383     1    N 15009769040CB B DACDCCBBCCDCACDDBDDAABACABACCACDAABDCDCADADB D D BBCADADADBBBBBBBDACDABBDBDBCBCCD DCACAADBDCDAA
010000401001061018001   5383     1    N 15009770040C BCBCCCBDBBC BABCCCCBDDABADBDBCDCACCAABDACBAABBCBCCDBABDAAAC CBDDB BADACAABBDBDCCCCBDDDDADBADBCCBAA
010000402001061018001   5383     1    N 15009771040CBBBADABDBCBBCCCBDAACBADCBCDCAABCCCCDAABCADCADACBBABDDDAAABADADBBBBCCCDACDCBBDBDBCBCCBCDCAAAADBDDDCA
010000403001061018001   5383     1    N 15009773040C D  BB     BABDCBABCBDCC          BBDBBDAABAABBBBCBBCAACAAADCCBDADCABDACDADAACDCCDCCDADCDAACDBCBCCA
010000404001061018001   5383     1    N 15009791040BDDBADADA      DBACACBDDDBCDCADBCCCCDAABDADCBDABBBDCCDCADA AD DBABBDCBDACDCBBDADCCBCCDADAACAADBDCDAA
010000405001061018001   5383     1    N 15009795040CCDBDDAAACCBDBDCBCADCCDDCACABAAADDDCDBABDADCADACBCCACCABBDAADBCBBBDDCDDACDCBBDBCBCBCCDCCCACABDCBCCAA
010000406001061018001   5383     1    N 15009797040DA B AA D  D   DBACACBDDA   CAADD  CDAAB A CBDA B C   A DDDADCDBABC   DACDC ADBADCBCCDADCACBADBD DCA
010000407001061018001   5383     1    N 15009799040AA C  A   C BC DCADDCBDDABCDCDADBDCDDAABDADCADACBADCDCBCDBAACCCBCBBACDDCCAADBDACCCBCCDCDCADACDBCDCAA
010000408001061018001   5383     1    N 15009805040A             CDAACBCA DA           D                      A   B     DDBCD DB BD CCCCD D ACBBD CB AB
010000409001061018001   5383     1    N 15009811040AACBADABD C BCDCDAAADBDDABCBACBDCCBDDAABDADCADAACBCCCCCADADADCCBABBBAADACDCDBDDDCCCCCDCDCACDADBDCDAA
010000410001061018001   5383     1    N 15009816040CA BADA     CCBDAAACCBDDCBCBABABADBCCADBCADBADACBACCBAADCADAD *BABBDBCDACDCBBABDCCBCCDADDBCCADBCACAB
010000411001061018001   5383     1    N 15009818040DADDADDCBAC BCDDCBCACBDABCDBCAADDCBABAABDADACBB  ADDAAABDBAADBCBBBCCADDAACCBAADDABACCCCADBCADABACDCB
010000412001061018001   5383     1    N 15009820040DCCBBCBADADABADD AABAAAAABBBAADDDBBBBBBBBBBBBBBBBBCCCCDCCBCCDCCBBCBCCCDACDADBABDDCBCCDDDADCDDABDDDAB
010000413001061018001   5383     1    N 15009821040CBCBCDACCABCABCACCBBCBACACBDBCAABDABCACACBBBBBCBCABCBCCBDADADCBBDDBCBDAACCDDBBBCCAACCCCADADCCDCBACAC
010000414001061018001   5383     1    N 15009825040CBBBADADDBCDACCCCDCACBDDCBCACAACCCCCCCCCCCCCADADBDCDDBBB*ADACCCBCBBCBCDACD*DADCCCCCCCDADCACABDDCCAAA
010000415001061018001   5383     1    N 15009835040CB BADAB  C BBDDDAADDBDDBBCDCABBCCCCDAABDADCADA BACCDCDBDADADCDBBBBCBDDACDCBBDBDCCCCCDADCAADADBDCDAA
010000416001061018001   5383     1    N 15009832040ACCBCDABAACABBCACACDCBDDAA*BCDDBCDACDAABDADCADACBBCACBABCADADBCBBBBACDDACCCBAACDDCCCCDCDAACDADBDDDAA
010000417001061018001   5383     1    N 15009831040AACBADACCBCCBCCCAACADBDDCACACCDACDCCDAABDADCADACBDDCDCCCDADADDDBDBBACBDACCCDBCBCCCCCCDADCACABDBCCDAA
010000418001061018001   5383     1    N 15009843040CDD*DDAB  B D DCDBCACBDDDACACBABCACADAABDABBBDABB CBABABDCDADDCADDBDCBDACDADBCBCCCBCCDADCAAABDBDCDCA
010000419001061018001   5383     1    N 15009863040 BCB DA A   C  CDADACBDDCBADCCDACAACDAABDADCADADB DCD ADCAAAD DBABBCCADACDCDADBDCCBCCDADCABAADBDCDAA
010000420001061018001   5383     1    N 15009857040 C BABA D C BCDBCACACBDDABCCCAACD B B ABD BCADA         D AAD  ABDB CDDACDADB BD BCCCDBCDACA DBCD CC
010000421001061018001   5383     1    N 15009844040CBBBCAA ABCCACCDCACACBDDABCDCCDDCCACBAABDADCADACCCCCDBBBCAAACCDBADBACADACDADBABDCCCCCCADDBCAADBDDDAA
010000422001061018001   5383     1    N 15009850040C DB AABD  DDCDCABADCBDDABBAADAD BDBDAABD   ABA B C BAA C DADCABCCB  *DAC CDBDCC CCCCD ADA B DB DAAB
010000423001061018001   5383     1    N 15009853040B ABADACDBCCACDDCCACCBADBACACCBDCACBDACBDADBADABBACDADCACBAAD DBBBBAAADACDCDBDBDBCCCCDAACBACBDBCDDCB
010000424001061018001   5383     1    N 15009864040C CB  A B CBB  A AADCBDDAACACACCCAACDACBDBCBAABBBACC           B      DACC CBDBD CCCCD DCABA DBCCAAA
010000425001061018001   5383     1    N 15010546040CBDBAAAADDDDBBBDDAAACBDDCBBCBBABBAABCDAAAAAABBBCCCDDDDDDCAAAABBBBABDDDDACDCBADBDDABCCDCCCACAADBBDDAA
010000426001061018001   5383     1    N 15011736040ABCBADA     BBCDDAAADBDDCACBCABBCCBCDAABDADCADACBBCCDCCBDBDAAADBABDBBCDACDCBADBDBCCCCDDDCA AADBACDAA
010000427001061018001   5383     1    N 15011754040CB C BCCAC BDC C  CBC   AABBACBACCACADAADDCDDABBDACADC DAADDDDCBDCDDCDDADACDBDCDBCCCCACCDADBDDBDBAAA
010000428001061018001   5383     1    N 15011758040CCCBBDABBCBBCBCDCBCDCBDDABCDDADBACBCDAABDADCADACBBCCDACBBADABCDBBBBBCADACDCBBDBBADBCCDBDDADABDBABDAA
010000429001061018001   5383     1    N 15011748040DBDBAAABDBCDBCDDCACACAA ACCBCCBAADCBCBCBCBBBCCACCCABDBDADADADBDBBBB BCDACDABBABDCCCCCCADDBAAADCACDCA
010000430001061018001   5383     1    N 15011747040CB BAAABDCC BCDDCABADCDDACDACAACCBBCD ABDADCADADCBCCCAAADBCACBDBBDBDBDDACDADBDBDCCCCCDADDABAADBBCDAB
010000431001061018001   5383     1    N 15011752040DCDBDD*ADDDDBADDCACDCBDDCACCCCBBCCB BAABDADCADADBBAACBBACAAADDCBBBBDBBDACDCDADCDBCCCCDDACBCAADBCCCAA
010000432001061018001   5383     1    N 15011745040CA B DAB    BAAABAADDBDDAAA*CABCCCBCDAABDADBABACCCCACDDCDABADCCAABBBDDDA                            
010000433001061018001   5383     1    N 15011743040CBDBBDAADACBBCDDCACCDBDDAABBADCBCDCCDAABDADCADABBBCADCCBDDDDDCDBBBBDCBDBCCACBADCACCCCDADCACAADBDCCBA
010000434001061018001   5383     1    N 15011722040CDDDCDADDDDDC  CDACCCBDDCABCCC ACCADCAACDDDDCAACDDCCCCAADCDDDDCBBBCBBDDA*DCDADADDACCCDDCDBAAAD CADA*
010000435001061018001   5383     1    N 15011742040CDDBADCBDBCBDCCCCBAACBDDDBCCCAADCACCDAABDADBADADBBDCCACBDADADADBBBBCBADACDABADBDCCBCCDDDCBCBCDBCCDAC
010000436001061018001   5383     1    N 15011728040DADBABABABCDBACDABBCCC*BBBDDCDBDCCBCCAABDADCAAADAADDBACACBDACDDBBBBCBBDACDCBBABDDCCCCDDCDDCCCABCDDDB
010000437001061018001   5383     1    N 15011739040ABDBCCDBDACDBDCCCBCACBDDCABDCDCDBAABCDCBCACDABBCBACACAAABBAADCBBBDBDDDDACDDBADBCDDCCCDCDDBAABDBDCDCA
010000438001061018001   5383     1    N 15011731040C  A CA     B  DCAABCCDDACAC CABDCC A     C BAB   DC  BDCADAD ABBCB CAACCADDAACBCADCCDCADAABADBBABAC
010000439001061018001   5383     1    N 15011738040CBCABBABBADABCDDCACACBDDCBCCCAABCCBAABCBDBBCAAADCBCBDAABDACDDACADBC*CDAACDACAABDCABCCDACDACBCDBCCDAA
010000440001061018001   5383     1    N 15011735040CDDBAABBABCBBBCCCACACBDDBBCDCABDCCCCDADBDADCADADBACCDBDBCADADDCBCBBDAADACDCBBCBDCCCCCDCDCACAADBDDDAA
010000441001061018001   5383     1    N 15011712040CBCBADA D BBBCCADACADBDDABCDCCBBCABCDAABDADCADACBCCCCC BDADAD DBBBDDABDACCADADCDDCBCCDADCACAADBDCDAA
010000442001061018001   5383     1    N 15011717040CDDBADAADDBDBCDDCACCDBDDABCBCABDCABDDAABDADCADACBBCADBCBDBAADACBDBBDBCDACDABBCBDCCBCCDADCADAADBDCDAA
010000443001061018001   5383     1    N 15011713040      A A CBB *CCACACBDBDBCCCACCCCCCDA*BDADCADADB CBDCACAADAD**BBBBBAADACDDBBC*DCABCCDBD*ACA DBCCDAA
010000444001061018001   5383     1    N 15011695040   B  ACD C C BDCCCDCBDDAB DCADDCAACDAABDADCADA B C      ADAA CBABD  BDACCC BABD  BCCDADCA AADB  DAA
010000445001061018001   5383     1    N 15011694040CBDCADBCDACDABCDCACDCBDDABCCBABDCBBCDAABDBDCADADBDCACABDCADADBBBBBBADBDACCDDBADDDBCCCBADCBC*DDBCCCAC
010000446001061018001   5383     1    N 15011692040CB B          CCCBCB*BDDCACCABDB   C AAB CDCADAABCCCDDDBAABB            CC     BCCCCCDDAABBADDBBCCAA
010000447001061018001   5383     1    N 15011693040DA   BA      C DCBCADBDDAA B CBDDAC D A DA BADAC  B C CDDCDABCCBBAB DDDBDADBADBCDBBCCCBDCDCCDDBCCBAA
010000448001061018001   5383     1    N 15011706040CDCBADABCBCBBCDACBACBDD*BADABCBDDCABDCBBDABCADBCBACADBABDADCDACABBBBDDDACDCDABBDDCBCCDACCABBADBDCCAA
010000449001061018001   5383     1    N 15011684040AADCBDADBBBCBACBABBBCBCAAADACAADCABCDCABDABBAD*CDDBCDCDACBDADADBBBBDBBDACCADBDBDDACCABACCACCB*CBCACA
010000450001061018001   5383     1    N 15011686040BBCBDDADDBBDBCDDCCAACBDDBBADCAABCDCCDAABDADCADACBACBCBDBCAAADBCBBBBDDADACCDDADBDCCBCCDADDADBADDCCDAA
010000451001061018001   5383     1    N 15011679040CACB DA A CBBCCDCACACBDDBBCCACADCC CBAABDADCADACB BCCDCBDAAACAABABBACDDACDCCBABDCCBCCDDDDACADDBDCCAA
010000452001061018001   5383     1    N 15011675040CBCBADACB CBDCCDCADACBDDABCACABBBACCDAABDADCADACBBCDBCA   DADADBBBBCBDDACDCDADBDB BCCDADCAAAADBDCAAA
010000453001061018001   5383     1    N 15011993040CBCBAD BA CBDCCD AADDBDDCBADCABDCCBCDABBDADCBDACBBCDCCCCB DADADBABB CCDACDCDBCBDCCBCCD DCA AADD CBAA
010000454001061018001   5383     1    N 15011990040CBDBADABDBCBAC DCACACBDDAACCBAADCBACDAABDADCADACBBDABCDBCDDACADBDBBBBBDACDCBBDBDACBCCDADCABAADBDCDAA
010000455001061018001   5383     1    N 15011998040CB*BADABDCCDBCCDCAAADBDDCCCBCAACCDBCDAABDADCADACBBCACBCBDAAADACBDBBBCADACCCDBDCCDCBCCDBACACADDBACDAA
010000456001061018001   5383     1    N 15012000040DBCBADDABBC BCCDBBCACBDDCA C A DCACCDAABDADCADA BBC     CADADADBABB DADACDC BBBDDCBCCDCDDA AADBBCDAA
010000457001061018001   5383     1    N 15011994040CB*B DABDBCBDCCDCBCACBDDABCACAADCACCDABBDADCADACBBCCDDCBDDDADDCBCBBBDDDACDCDACBDCCBCBDADCACAADBDCCAA
010000458001061018001   5383     1    N 15011979040 ADB DABCBBDBCACABCACBDDBBBCCABDCBCDDAACDADADABCBDCBCC    CAD CBDB DCBDCC ADABBCCCBCCDDDCABDDDBBBBAA
010000459001061018001   5383     1    N 15011987040CBABBCACCBCBB CDCAAADBDDABCBBDCBDCBCD ABDADCADACACDCBAABDBDADACBABBBACDACDCBBDBDCCBCCDADCADABDBDBDAA
010000460001061018001   5383     1    N 15011984040CBABADA     B DDCAAACBDDABCBCADBCCCDCBABAABBCDACBDACDBCBDAAADADBDBBCBBDACDDAAADC ACCCDADDACADDCCDDAA
010000461001061018001   5383     1    N 15011974040DBCBADAADDDBBCCDCACACBDDABCACABCCBACDADBDADCADACCBDAAACABADADADBBBBBCCDACDCBBDBDCCBCCDADCACAADBCCDAA
010000462001061018001   5383     1    N 15011961040CACBADABDDC BCCDDACACBDDABCCBBBADCBCDAABDADCADA B D     CCDAD CBDBBDACDACDCBBDBDCCBCCDBDCABAADBDCDAA
010000463001061018001   5383     1    N 15011962040CCAABBAD    CDDDCBDBCCDDAABBDBABACCAADACDBABABBBDBCABCCDBADBDBCBABBCCADDCADAACCB                    
010000464001061018001   5383     1    N 15011970040DACB DA B CBBCCDCADACBDDAABDCADDCB CBAABDADCADACBDC      ACDA DBBBB CCDA*AACAACCCCBCCDADCAAAADBDADAA
010000465001061018001   5383     1    N 15011973040C BBADA C CC   DCACDCBDDAABBCAABCCCCDAABDACCABABBDBCCBACBCDBDAABCBBDADDCCDCDADBDCCBCCDADCADDADBDCDAA
010000466001061018001   5383     1    N 15011947040CDCB DABA CCDCADCAADDBDDAAABAABBCCACDAABDADCBDADBBDBBBBBBBDADCDBABBBBADACDCDBDBDCCCCCDDDCACBBDBBCCAA
010000467001061018001   5383     1    N 15011954040BCDCBAADDBDBCBCABDCACBABAACACCAACDABADCBCABBDABBCBCCADDBDBBBDCCBBCDBBDDACADDABACDCCCCBBBDBCBDDCDDDDA
010000468001061018001   5383     1    N 15011972040AACBBDACDACABCCDDBBACBDDBBBDAABDCABCDAABDADCADABBDCCDCADCCDADADBCDBACDDDCDCDAADDCCBCCDCDDBCAADBCCDAA
010000469001061018001   5383     1    N 15011959040CBCACDACBDCDDCDCDDABCBDAAADDCAADDDABC ACCCCDCACDCCCBDABBDAAADACBBDBBCDDACDADBDDDBBBCDCBDCACBDDBDBCAC
010000470001061018001   5383     1    N 15011938040DCDBAAABA CBBCCCCDADCBDDABAACABDCCBBAAABDADCADACB   B    ADADADBBBBCAADACDCBBDBDCCBCCCBDCBBABABDCDAA
010000471001061018001   5383     1    N 15011931040CBDBAAABAABDBCDDBAAACBDDABADCAADCDACDAABDADCADACBDCCDACBDADDDCABBCBCDBDACDACBDBDDCCCCDDDCACABDBCDDAB
010000472001061018001   5383     1    N 15011939040CCDBACABBCD BCDDDACACBCDA     ABCDA DAAB  DCADADDCCABDBBC*DDDDCACBBCCDAACCCABDBDDCCCCD*CAABCDDDBCDCA
010000473001061018001   5383     1    N 15011932040CB BDDAB  CDBCCDCABACBDDCBCCCABDCCBCDAABDADCADAABBC CCCBCACAD*DBBBBCAADACDCDBCBDCCBCCCADCABAADBDBDAB
010000474001061018001   5383     1    N 15011946040CBDB AACDDCCABCDCACAD*DDBACDCAADDCCCDAABDADBADADBADCBA    ADCCDB BB ACDACDABBABDBCBCCDADCACBADBDCDAA
010000475001061018001   5383     1    N 15011912040ACCADAAAA*CBCBCDA**BCBDABBDBCAABDC*BAAABAAABBABABAACDAADDB*ADBABBB* *DDACDCDBACDCCCCC*CA*ACBBDDDB*AB
010000476001061018001   5383     1    N 15011921040C  BADACD C BCDCCAADCBDDAACBCABDCCCCD  BDADCADA*B C B DB  DAD AABBD CCDACDABBDBDCBBCCDADCBAAADBBCCAA
010000477001061018001   5383     1    N 15011916040CCCBDDAAAAADBADDBAABCBDDABCBCABBBACCDAABDADCADA BBDDCDBBDCAAC DBBBDAC D*CCC    CD CCCD DCACBDDBACBAA
010000478001061018001   5383     1    N 15011926040DABDBDACABCB BCCDBCACCDABABBCCACBCCABBABCABCABBC  BBA BADDAADCCBADBACBDACDCDBDDDCCCCDBCABBABCABCCDAB
010000479001061018001   5383     1    N 15011937040CBDDBBA*ADCBCADBABCBCAADAADBB*ACADBBADBBDADCADBCADCDDB*BAAADDBCABCDAD*DACABABDBBDCCCDDAADB DCBBDAAAD
010000480001061018001   5383     1    N 15011901040DDCB DDBDBCBBCCDBACADBDAABCA AAAA ADDAABDADCADBCB         DAD CBAABDCDDACCCB CBD  DCC        DB   AA
010000481001061018001   5383     1    N 15011908040CBDBADDBDBCBCCCDCADCCBDAAACBCAADBCACDAABDADCADACBBCCCCCCDADADADBABBACCDACDCDBDBDBCCCCDCDCCBAADBAADAC
010000482001061018001   5383     1    N 15011894040ABCBADABD CDBCDDCADACBDDCACACABCCABCDAABDADCADAABDCCBBDBDAAADADBCBBCBCDACDCDBCBDCACCCDADCADABDBD    
010000483001061018001   5383     1    N 15011888040BBCBAAAADBCDBC*DCAADCBDDAAABACABADBDBAABDADCADABBBABCACBCADADADBBBBCCADACDCDBDBDCDCCCDADBABAAABBCDAA
010000484001061018001   5383     1    N 15011902040ABDCCACDDCCDBDBBBACBCCBBDADDADADABCACDCDCBACBBABDCABDCBDBCADDBCBBCBCBDAACDD BCBD CCCCDBBDBCBCACBCDAC
010000485001061018001   5383     1    N 15011885040CCCCDDABAD BBBBDBDDBCADD*ADDACCACCD D A   BBABBBBDDBDBDBCADADADBDBBDDDDACDCDAABDCCCCCDDADACBADBAACAB
010000486001061018001   5383     1    N 15011823040AACBADDBABCBBCCCCDAACBADABCACAABAADCDAABDDDBADBBDDCADCABDAAADDDBABBCBBDACDCDBDBCBCCCCDADCACABDBDCDCA
010000487001061018001   5383     1    N 15011815040CBCBDDACDBCDBCCDCACACBDDABCACABDCCDC AABDADCADAABBCDDBABCAAADCDBBBBCABDACCCDBDCDCCBCCDADCACAADBDADAA
010000488001061018001   5383     1    N 15011813040CBCBADACDBCBBACDDACACBDDABCDCAAACCBCDAABDADCADACBBCADDADBBCADDDBBBBACADACDCCBABDCCBCCDADCACAADBDDCAA
010000489001061018001   5383     1    N 15011825040DCCDBDABCDBCDAADAAADCBDDABCDBACBADC DAABDCCCABBDDAC D DCBACBBBBBBCBBBBDBCCCDBDBBDCCCCDADCBBADDBDCDAA
010000490001061018001   5383     1    N 15011806040 AD BDA     BCAA A  DBDDCBDDCAADCAACDAABCCCBADABCA* CCD DBACD ABCBB CBDCCACBBDDDBACCCD DCBDCBDBADCAA
010000491001061018001   5383     1    N 15011793040ACCC DACCCCCBACCDBCDCBDDABCAACADDCCCBAABDABCABBDBBDCDCBBDADADADBBBBCCDDACDCDBDBDCCCCCDCDDC ABDDCCCAB
010000492001061018001   5383     1    N 15011788040CADCCDAADBCDCCCAABAACBCDBACDCCADBCBBBBBBDADCAABBBBCCCCABBADADCBBBCBCCDDACCCDBDDCCCCCCCDDDDCCADBCDAAA
010000493001061018001   5383     1    N 15011789040CB DAD  D  CBCDDCBAA  D CBCBCBABADCABBABDAD ADACBDCACACBDBDADBCABCBACADACDCBBDBDACCCCBAADBBAADBBADAA
010000494001061018001   5383     1    N 15011801040CBBBAAABBCCABCCABAAACBDDABACCADBCACCDAACDADCADACBBDAAADBBBDADADBDBBDADDACDACBDBDBCACBDADCBDADDBBCDAA
010000495001061018001   5383     1    N 15011767040 BD    DDDDCBCCCD CBC D AA A CACD A  DC D  B D    CC  B DADAD CBB    DDACCCDBABD   DA ACDAC  D CCDC 
010000496001061018001   5383     1    N 15011762040CADCCC    CDCCCDBDACCBDDABABCAADCAC CAABDADBADCCCDCCCAABCADADCDBBABBBADACDCDADDDCCBCCDDADACBDDBCCBCC
010000497001061018001   5383     1    N 15011773040CBDDDDABDBCCCCCCBAAADBDDAACACABDACBCDADBDABCBDADCDDCDCBBAAAABCDABBBBBDDACCCBBCBDCCCCCDADDACAADBDCDAA
010000498001061018001   5383     1    N 15011769040DBDB DA       DB BADCDD AA   CAAD D         AABB  CDD ABCBADD CBB B ADDACDCDACBD C CCD DCADBDD DDCAA
010000499001061018001   5383     1    N 15011764040CDCCBBCBCDCBBADACBABCBDBAABCCBCADCAABCDBDADBABCBBCCCDBDBABBADCBADCBCADAACDABAABCDCCCCDAADCBCBDBCCBAB
010000500001061018001   5383     1    N 15012026040               BCAADCADAAA   BABDCB          DB   A  A  B     CB  B    AC     BD CACCBDACBCA DB   AB
010000501001061018001   5383     1    N 15012023040AB   D      BCDDAACDCADDCBA ABDDCAACDAABD D ADA B C       DAA DABCB  BDACDADBBBDCCBCCDCADBCA DB CBAA
010000502001061018001   5383     1    N 15012030040CDCCCDA A C BDCDCB ADDCBAB C B*DD B DA BDA C AABCDDCB CBBBABDCCBBDCBCDDACADAAACCCCCCCBDADADABCBDBDAA
010000503001061018001   5383     1    N 15012022040CBCBADABAB DBCCDCDAACBDDCBBACAAACABCDAABDADCADACBBDCABDBCDAACADBBADCBCDACDCDBDBDBACCCDBDCBCABDBDABCA
010000504001061018001   5383     1    N 15012028040BBCBDACCDACDBCCDCAADCADABBDBCCCBCABDCDABDADDADACBDA D ABDADADCBBBBBDA DA     CBDDCCCAAACB           
010000505001061018001   5383     1    N 15012033040BDDCDBABCAACDCDDBBABCBAABBCBAACBDCAABDCBCBCCCABBCDAADDBDBBDBDCCBABBCCDDACDCDADDDDCACCCACDA BCDBCCBAD
010000506001061018001   5383     1    N 15012035040DBDCBDDBDBCCBADABACBCADDAABCAADDCCCBAABBDABCBABDBACACCCBCADADCCABDBDCDBCCDDDADBDCCCCCDADDA*AA       
010000507001061018001   5383     1    N 15012038040 ACB DAAABCDBCCDCAAACBDDCBCACABBCCCCDAAB AD ADADBBCCBBABBBAAD DBCBBDBCDACDACBABDCCBCCDADCACAADBDCDAA
010000508001061018001   5383     1    N 15012005040CADBDBAADACDBCDDAAAACADAAABDABACDCABBDCBDAABAAAAAACABBDDDBAADACAADBCBDDACCC B               DAAAC AB
010000509001061018001   5383     1    N 15012010040CDCB DADABCCBCCDCACACBDDCCCBBABCCCCCDAABDADCBDACBBCADABADBBABADBDBBDAADACDCDAABDCCBCCDADCABAADBDCDAA
010000510001061018001   5383     1    N 15012008040AADBDDACCACBBADACBCDCDDBABCBACCABDDC   CCBCCABBDBCCBCBDBBBDABDCBADBCDDDACACDADCCBCCCCDDCBACCBAACCDAA
010000511001061018001   5383     1    N 15012002040CBCBCDAACBCBA CDBAAACBDDBBAABAABCCACDAABDADBADBDBCDCBCCADBDADBDBCBBDBADACDCDADBDACACCDCDCDCAADBBDDAA
010000512001061018001   5383     1    N 15012007040CBD  CABD   BCDDCBAACBDBACABCAADCDACD ABDAABADBDD     C  BAAD CBBBB   DACACCB BD  BCDDCD ACA  B DAAD
010000513001061018001   5383     1    N 15012013040CBDBA*ABDACDBCCDCACCCBDDACCCAAADB BCDADBDADC      CCCAACDBDACBDBBDBACADACDDDBDBDCABCCDADDCAD*DBCCDAA
010000514001061018001   5383     1    N 15011882040  B  AA     BCCDBADACBDDAACADBCCACD           B   CCCCABCBAADCBBDB  CADACDCDAABDDCACADA*BADBC*BBCCAA
010000515001061018001   5383     1    N 15011877040DADDCCABDCBDBCBCAACDCACAABCBCABABDADBDABDADBAABBBACDABCBCAAADCCABBBCCDAACABDBAABCCCCCDBACACBDDACBDDC
010000516001061018001   5383     1    N 15011861040BBAAABABABAA*BADDBBBCAA ABACAABBCCDDABABABABABBAABABBAADDAACDABBBABDCAAACCADBACCAADCAA ADABDDAAA*ACB
010000517001061018001   5383     1    N 15011851040CB BADABB C BCC  ABACDDCCA  CBDCCCAC AABDABCADACBBC   A  BDADADBBBBCBCDACDADBDBD  ACCDCDDA B DB CCCA
010000518001061018001   5383     1    N 15011854040CACBADABABCBCC DCACACBDDABCACABAC CCDAABDADCADADBADCA ABDBDAD DBABBABDDACDCCADBDCCBCCDADDADAADBACDAA
010000519001061018001   5383     1    N 15011857040CCC* DA D   BC CDCCACBDDCBCCCADBCCBCDA BDADCADACB C DCDBAADDD ABADBCCBDACCCDABCDCCBCCDADCADABDBCCDAB
010000520001061018001   5383     1    N 15011863040C    DA     BC ACBABCBDDCA      D  CDAABDADCADADCDCCDBBB AAADBCBBCDBCADACDCCAABDAACCCACADADAA CBCCAA
010000521001061018001   5383     1    N 15008729040CACC BA     B DCCACDCBDDAABCCCDBBDC B ABD  BAABC  CDB     DAA CBBBB BDDACDC BDBD  CCCD CD CA DBCABAB
010000522001061018001   5383     1    N 15008731040CDCBA AC   DB  DC  DCBDDAACBCCAACAA D    ACBADCDBDDCD  BBBABD CBBBB CDDACDACBBBDBCCCCD DCACA DB CBAA
010000523001061018001   5383     1    N 15008723040DBCBAD  D C BCCDCDC CBDCCBCDCAABCDACD ABDADCADACB C DCCBCBCACACBABBCDDDACDABACBDCBCCCDCDCBBCBDB CDA 
010000524001061018001   5383     1    N 15008726040CB          AA DDCADCBDDDBCDACABDDB  AAB    ADBDB B D DBDBCA   BBC  AADACA DBCBDCCCCCCBDCBCADDB C AA
010000525001061018001   5383     1    N 15008727040C DB DAD  BDBA A BAACBADAACC DBADAC DAABDACC CACBDC CC  C AADCDBBBB  AB CDCDAADCDCBCCD  CACAADBCCDAA
010000526001061018001   5383     1    N 15011843040CB B DA A  BA  CCADACBDDABCCCAAACCACDAABAADCADACB CBC     BAD BBD BC  DACCCB D DCCBCCDADABCAADBCDDAB
010000527001061018001   5383     1    N 15011842040      A        DBAC  BDDAABCBBCBDA   A   ABBABACBAAC   ADCAA ACBACACAADADACDA C                     
010000528001061018001   5383     1    N 15011850040CBCBADABA CBBCDDBACACBDDDBBDCA CC  C AABDADCADADB C     D DAD DBCBB B DACDDDBABDACBCCDCDDA AADB CCAA
010000529001061018001   5383     1    N 15011849040CACBADAADDCDACADCACBCBDDABCDCABDCCA                           DBBBBDBCDACACAACDDCCCCCDBDCAC ADBDADAA
010000530001061018001   5383     1    N 15011847040   B  A A   DC DAACACBDDAB BCAA C  CDAABDADCADA B C       AAD CBBBBDCADACCC BDBDACBCCD DD CAADB DDAA
010000531001061018001   5383     1    N 15012132040DACCACACCBCBBCBDABCBCBBDAADACBADBAACDAACCAD BBACBDCDBCABDAAADCDBCBBCCCDACDDCBDBDBCBCCDBDCBCAADBCDDAA
010000532001061018001   5383     1    N 15012141040CDCB AAB BC BCCC ADDCBDBABAC ABCBABBDAABDADAADACB CCADCB   ACCCBDBB CBDACCADBBDCB BCCDDDDDDA DBDBDAA
010000533001061018001   5383     1    N 15012146040BCDCBDBCCACDBADBADAACBDDCCCCBCBDAAAABDCBCCDCABABBCACCCDBCADACCDBBBBACDDACCABBABCDACCABCADACADACCBACA
010000534001061018001   5383     1    N 15012135040C C  DA        DDADDCBDDBBBDCCDDADB BAABD     A     D   D  A   BDCB   D CCB B CBCCBCCDBDDA ADDBCCBAB
010000535001061018001   5383     1    N 15012130040CACB AABB C ACCDBAADCBDAABCDAACDAAACDAABDADCADABBBC DABACDDABBBBBABBCCDACDABA BDCCBCCAB             
010000536001061018001   5383     1    N 15012120040CBBDBDABDACDBACABBCDCBDAAADAAABAABDCCBCBDCBBBBBDCDCACBABCADCABCB*D  DDDACCABBDBD  CCCDADCACBCDBAADCB
010000537001061018001   5383     1    N 15012126040DB B  ABA CCBCDDCABACBDDABABCACADAACDAABDACCADACBBC  CDB A DDACBABDBCDDACDADBABDBCCCCDCDDBCACDBACAAA
010000538001061018001   5383     1    N 15012115040DBDBBAAADACCBCDDCAAACBDDAADBACABCABCBCABCADCADACBDCDDAABDBDCDBABABBDCDDACDCBACBDDCBCCDDDBADADDBBCDAA
010000539001061018001   5383     1    N 15012113040CCCBADABBCCBBCCDDADDCBDDABABCBDDBCBCDAABDADCADACBBDADBBCBAAACBDBCBBCBCDACDCDBDBDACBCCDBDCACAADBACDAA
010000540001061018001   5383     1    N 15012114040CDCBADABDCCCCCCDCACDDBDDABADCACBCDBCDAABDADCADACBBDCDABBCBDADADBBBBBBDDACDCDADBDCCBCCDADCACAADDDCDAB
010000541001061018001   5383     1    N 15012106040DB B DABA C B  ACADACBDDABCDCAABCDBCDAABDADCADA BBC   CBCADAD DAABBACADACDCBBDBDCCCCCDDDCBDBBDBDCDAA
010000542001061018001   5383     1    N 15012105040CBCBADABD CDBCCDCAAACADDAAADAABDDDACDADBDADCADACBBCBDAABDADADADBBBBCCADACDDAAACCCCBCCDDDDACDADBCCCAA
010000543001061018001   5383     1    N 15012108040DADBAAABDDAABC ACABDCBDDBBBBCAABCBCCDAABDADCADBDBACBBBBBCABAD DBDBBBBCDACDCBBDDDCCACCDADDADABDBDCDAA
010000544001061018001   5383     1    N 15012111040CBACABABCBDBBABDBDBBCBDAAADAABDCACCBBDBDDCBCBABCADCACDBABADDDCCBBDBCCDDADABDADCBCCCCCDDCDBCADDACACAA
010000545001061018001   5383     1    N 15012101040CBBBAAADADCDBCCDDAAADBDDCBCBCABDCCACDADBDADCADABABDCDCBBDADACCDBACBDBCDACDCDBDBDCCBCCDADCACACDDDCDAC
010000546001061018001   5383     1    N 15012099040CDDDBDABCCDABBCCCDDACBDDABDAAAADBDABCDCCBBCBBABCCDCDCAACDBDADACBBABBCADACDADADB*C  CCAACDADABDBCCCAD
010000547001061018001   5383     1    N 15012100040CBCBACABBCCBBCCCCADADBDDABBDCCDDCCBCDAABDADBBDADBBCCDCCCDBAADAABBBBCCBDACDABBDDDBCBCCDBDCACAADBADCAA
010000548001061018001   5383     1    N 15012097040 C B DA A   ACCADBDDCBDDA             A BACCADACA CADDABCAAAD DBBBBDCBDACCCBBD*DDCCCCDCDCACCADBBCCAA
010000549001061018001   5383     1    N 15012080040C  B  A     BC CDABDCBDCCAA  A      D ABD DCADADDDDACACCDBDADCABCBBDBAAACDCDADBDDDBCCACACACADDDACACA
010000550001061018001   5383     1    N 15012082040CBCBADABADCDBCCACAADDBDDCBCCCABDCBCCDAABDADCADACBACADBCBCBDABADBABBCACDACDCDBABDCCBCCDADCACAADBDADAA
010000551001061018001   5383     1    N 15012057040CBCBBAABACCCDCCBABACCADBCAACCCABCBCCDAABDADCADACBBDCDBACDADADACBBBBADDDACCDBABBCCCBCCDBCCACBAADCBCCB
010000552001061018001   5383     1    N 15012067040CBCBCDACBDC BCBDDACCCBDDABCACABBDCCCDADBDADCADACBDDBBCBBCADADCDBBBBDABDACDCDBDBDCCBCCDADCADAADBDDCAA
010000553001061018001   5383     1    N 15012069040DDBCBDDCACBBBABCABCDCBDDABCAAAACDAABDCABCADCAAACBADBCABACAD**BDBABBDADDACDCBB*BDDCBCCDBDABAABDBDBBAB
010000554001061018001   5383     1    N 15012049040C  BADD DB  BCDDCAABCBDDAAABAAADDAA DAA   AB DAD BD CA DDAAAD DBBBBCCDDACDADADBD  CCCDADDACB DB ADCB
010000555001061018001   5383     1    N 15012044040CBDCDCACDCDDBBCCCAABCBDCAABBAABDACACCDAADACBBBABCDDCBACACABADCCBBCBBADDACDDDBCBDCCCCCDBCDACCBDACADCB
010000556001061018001   5383     1    N 15012074040B  DDDA    DBCDDDBABCBADADBDDBCBCBCA DABAA**ABABBCCCBCADCBA   BBABCC  DD      BBCABCCACCDB   A BA A 
010000557001061018001   5383     1    N 15012062040D     A    DB  CCBABCCDDAADCCCBDBAB  A CD    AB   CCA D CBCBD CBD BDCDDACCADBDDD ACCCDCADACBDA CBAAB
010000558001061018001   5383     1    N 15012609040CADDDDDDCACDBDCCCBABCBDDACBCADADABADCDADDC BCBBCCBCCBBABDA*BCCC                                     
010000559001061018001   5383     1    N 15012596040CBDAADDBDDCDCCDDAACACBDDCCCDAABDCACCDAABDADCADACB DBCBACDAAADADBCBBCBCDACDCDBDDDCCBCCDADCAAAADBDADAA
010000560001061018001   5383     1    N 15012564040CBCBADCCDCCBBCDDDAAACBDCBABDCABBCBACDAABDADCADACBBCCDDACCBAADADBBBBCCADACCCBBDBDCBBCCDDDCACCADBBADAA
010000561001061018001   5383     1    N 15012561040C    BA   B  B ACADCCCDCCCDCCCCDDBCCADDADB BDACCDAAAABCBBACBDDCBACBBCBDDCDDBBADDABDDDCDAAACCBACDCB  
010000562001061018001   5383     1    N 15012579040CBDB DACAB  DCCDDBDCCBDAA          CDAABDADCADABB CCBACBCBDBDBCBBCBDCDDA                            
010000563001061018001   5383     1    N 15012580040CBADAAA DCC BCCDAAACCBDDCACA*CADCAC DAAB  DCADA B B B  C  DADACBDBBACCD CDCBBDBCCDBCCDAADACAADBCABAA
010000564001061018001   5383     1    N 15012590040CB   AAAAD CBA DCBCBCCDDCBDBACACDDA  AABDA CABCC  DCDCCADAADDACBBCBACADACCCBAABDCACCCDCADACABDDACAAB
010000565001061018001   5383     1    N 15012583040CCDBBDDBDCCDBCDDCACDCDDCACBACAADACACDAABCADDADACBCCCBCABDAAADCCADCBBCAAACDADADADBCBCBBCACACAAABDADCA
010000566001061018001   5383     1    N 15012581040CBCBCDDCABDADCDDCBDBCBDACADBCCACDDCABDCCCBABCABCCDCACBBDCABACCDBACBCCDDACCADBDBBDCDCCDCCCACBCAABCAAA
010000567001061018001   5383     1    N 15012677040CADC D    CBBCDDCACACBDDCBCBBAABCADADABBDAACABBDBCACCCAADADAD  ACCB C DACDDDADBB CBCCAAAAACBBDB BBAA
010000568001061018001   5383     1    N 15012669040C          BB  DCDCACBDDABCDCABCCCACDAABDADBABB       ADDBCDC ABBBBACADACCCBB DCBCBCCDADCACAADBDBDAA
010000569001061018001   5383     1    N 15012675040CB BACDBADCCB DACABACBDDAACACCACACACDDABDADBABACBDCABADADBBABADBCDBDADDACDCDBDBDDCCCCDBDCACCCDB CDAB
010000570001061018001   5383     1    N 15012666040CA CCDABDB DA CD ACCCBD BCCCBCCDBCABB A DC BBAAB  CDBCCBCAADD  BBCBACDBACDCDADADCCCCADBCCADADD AADAB
010000571001061018001   5383     1    N 15012685040DCCBCBDDADCBBACDCACDCBDDABCADCACDCABDAABDABCADABBDCDDAABDADACDCBBDBCCCDACCCBADBDDCBCCDBDCBCBCDBCDDAC
010000572001061018001   5383     1    N 15012678040CBDB DD  A  B DCDBABCADABA B CBDDCBCDAABDA    B  BCADCD AADAD  A CB B DACDDDADBDCCBBCDACDCAA DDCCDAA
010000573001061018001   5383     1    N 15012670040BBDBDDDCBACBCCDDCACBCBDAABD*CCABCDCCDAABDADCADABBACADCDBDADADCCBBBBCABDACDCABABBCCBCCDAADCAAADBCCDAA
010000574001061018001   5383     1    N 15012684040DBDACDADCABADCBBCAABBBDCBBCDBCCDACAABBCADACCDBBBDCDCA*ABBACDDCBBBCADBDBACBABDCBBCCACCDBCDDBDADDD    
010000575001061018001   5383     1    N 15012694040CBDB DAAD   BCBDAABBCCADDADAACADCCCBC DAC   B A   ADB A C BBD CBDBBCCDDBCACDBA CBCCCCDAADDCACDCCDDAB
010000576001061018001   5383     1    N 15012646040CCCCDDDDDDDDBDDCCAADCBADDABBCCCCDDD     D   A     C       DADCC*BBB   D CDCD  B CCCCCDDCCAAAADDDDDAA
010000577001061018001   5383     1    N 15012650040CDCDDDABBCCBADDDAAADBDDDACA  CCCDBDDCBCCDBDBDCCCCDDDDADCAABACABAADBDBBDACDDDBDBDDCDCCDCDDAABBADBCCAA
010000578001061018001   5383     1    N 15012655040               CCBDBCBDAA      A   CDDD     CABD  DCD C  B  D DABBB   DAC    DBD  C   ADCB BBD B  AB
010000579001061018001   5383     1    N 15012651040CCCCBD         CCBDACADDABADCDBCDCACD ABDADCADACBBBA     ADA  D CA  ADDAC ADB BBBBCCCDACCA DA BCCDAA
010000580001061018001   5383     1    N 15012653040CBCBCDABDBCBBCCDAACADBDDBBCBCAADCCACDAABDADCADADBBCACBBCDCDADBDBABBABCDACDADBDBDBABCCDADDACADDBCCDAA
010000581001061018001   5383     1    N 15012627040CDCBA A BC  BC DCBCBCDDACBDD ACCD ACC      BC     C  BBC BAAC  ABCB   A CC   D D CCCCDADCCABCDDCC AC
010000582001061018001   5383     1    N 15012643040CB   DBBC CBCCCDAAAACBADAACC B DDDACDDABDADCADACBBCCBBC ABDAD ABADBBBDDACDDBBDBDCCCCCD      B       
010000583001061018001   5383     1    N 15012633040CB  AA BC   ACCDCBBDCBDDAC   CBBDDA C AADD  D  D  D   BDDDCAD BAB BDCDDACAADBDCC CBCCDACCACBADBCCDAA
010000584001061018001   5383     1    N 15012641040C CAB ABBAC B CACAADCBDDAABBACACDCCCB    ADCADAB  CCBCBDDCDBDBCBA*BBCBDACCA BDACCACCCA DCCCABADAADCA
010000585001061018001   5383     1    N 15012623040CBCBDDABABCDBCCDCACCDBDDBBADCAD*CCACCAABDADCADACBBCBABCCDADACBDBABBDCADACCDDBABCCCBCCDCDCCCAADBDCDAA
010000586001061018001   5383     1    N 15012619040CBCB DA BD CBCCDCADACBDDCBCDCABDCDACDAABDAABADADBBCABCDCCBAADCDBBBBBABDACDCDACBDCCBCCCADCACAADBDCDAA
010000587001061018001   5383     1    N 15012469040CBABBDACDACDBCBDAAAACBDAAAACADADADBACAABDADBADADCCBCCDDCBADDDDDBABBBACDACCADBABDCBCCCDCADACDDDBDCCAA
010000588001061018001   5383     1    N 15012466040CBCBAABBAACCBCACCAADDBDDCBCBAAACCCBCDAABDADCADACBDCCCCB   A DACBABB ADDACD  B  D CBCCDBDAA   DB CDCA
010000589001061018001   5383     1    N 15012470040CD        C D CB CAACBADAA B         AABDB        C D AB BAAD CBDBB   DACDB   BB CACACAD  C  A  B A 
010000590001061018001   5383     1    N 15012459040DBDAAAACDCCABBADBBADCCCDABCCCABDDCAACDACCADDAACDCBABBCBACCDADBCBADBACCDACCCDBBBCACCCCAACBBCDADDCCDCC
010000591001061018001   5383     1    N 15012432040CDDDADABB CDACCACCCADBCDAA         CBAABDADCACBDBBCAA ACDBDAD**BBBBBCCDCCDADBDBDCCBCCDCA*BDBBDBADDAA
010000592001061018001   5383     1    N 15012443040CBCAADACCDCDBCCDCAADCBDDCBCBCABCCCACDAABDADCADADBBDACACADBDADDCBCBBCCADACCCDBDBDCCBCCDADCACAADBDCCAA
010000593001061018001   5383     1    N 15012439040CDDDBDAABBCCADBDBACBCBDDDCCBCBCACCCDDDABDADCAABDBACDDBBADBAACCDBBBBCBAAACDCDBDBDACCCCDACDABCBDDACDCA
010000594001061018001   5383     1    N 15012435040CBCB DABBBCBDCCDDAADCBDDABCDCABDCCCCDADBDADCADADB C D C DADAD DBABB CDDACCC BDBDCCBCCDADCACBADBDCDAA
010000595001061018001   5383     1    N 15012442040AABBCAABC BCBABDCBCBCBDBBABCD*ABBCCABDABDBCADDCBBACCDCABDCDADC*ABCBACAB CBABACBBADCC D       DBA C  
010000596001061018001   5383     1    N 15012551040C CBADACD CBBBDDDBCCDBDDBCCBBABACCCCDADBDADCAABDB C        ADCCBADC CADACCDDADCDBCBCCDCDDACAB**CB AA
010000597001061018001   5383     1    N 15012550040CBBB DA C   B CDCACCCBDDABABCAA CCACDAAB   CA B   D       AAD DB BB CCDACDCBBDBDCCCCCDADCBCAADBD DAA
010000598001061018001   5383     1    N 15012559040ABCBCDACCBCDBCBDCACACBDDABCDCCBCCAACDADBDDDBADACBADBAACABBDADADBBABDBADACDABAABDBCBCCDADCBCBADBDCDAA
010000599001061018001   5383     1    N 15012554040AACADAADBCCD*CBDCACACBDDABCDCBBACAACDAABDADCADACBBCDCCCBBCCCBDDBCBCCABDCBAABCBCBCCBCCDDDCACAADBCCBAA
010000600001061018001   5383     1    N 15012534040CAD  DA         CBDDDBDAABDB CABACA DAABDC DACA          AAAD CBBCB B DAC  DBDBCACACCDADDACBADA CBAB
010000601001061018001   5383     1    N 15012542040CBDB DA       DCBAAACBDDABCBCBBBBAD DAABDAACADAB CDD DABCADBAADACBCC DDACCCDAADCCCBCCDBDCBCAADBCCCAA
010000602001061018001   5383     1    N 15012546040CB    A D      DCACACBDDCBCD  B     DAABD ACA BCB        AADC DABBB   DACDCCB CDCCBCCDADCA AADBDCDAA
010000603001061018001   5383     1    N 15012526040BBBBDDACBBCBBCCCCAADCCDABABBAAACACBABAACDCDCBBAD  DABCDADBDADADBBBBADADACDACBDBDDCCCCDADABDAAABACBCA
010000604001061018001   5383     1    N 15012527040CA  AA BB C B C* ADADBDDAA C  ACD A B BBDADCAABCB C B C CBDAD BBBBB ADDACDADB BDD ACCD DCA A DB ADA 
010000605001061018001   5383     1    N 15012506040CCDBDDAB    ACBADACACBDDABCCCAADDDACDAABDADCADACBCDCDCAACADADBCBBBBDDADACDCBBDBDDCBCCDADDACCBDBDCDAA
010000606001061018001   5383     1    N 15012513040CCDBCBDCD CCBBCCAAAADBDDCAAABBABCDBADADBCCDBBABBDDCDDBDDDBABADCBCBBCAAAACABCBACDDACCCDAABAABDDBDBAAC
010000607001061018001   5383     1    N 15012502040CCDBDDACCBDDBCCDBACCCBDDCBCBCCBADCCCCBABCB   DADBBDCCDDDCBAADDCAB A C  C                            
010000608001061018001   5383     1    N 15012501040DBCBBAABACCDBC DCACCCBDDCBCCCAABCDACDAABDADCADACBBAADCCBABAADADABBBDACDACDCBADBDCCCCCDDDCACAADBACDAA
010000609001061018001   5383     1    N 15012497040CBDA DAB BCCBBDADABADBDDAADDBCBDDAA BAAB  ABAABDADCCB A DAAADACBBBBCBDDACCADBABDCCCCCDDDCACADDBCDAAB
010000610001061018001   5383     1    N 15012472040CBBBCDAAADCBBCDDCADACBDDABCDCABDCCACDAABDADCADACBBCCCCBBDADADCDBCBBDDDDACDCBBABBDCBCCDDDBADABDBDCDAA
010000611001061018001   5383     1    N 15012474040 D   DA     A CACACCCBADCBD        DB ABDADCACBBBADBBCCB AAAC BBABC CBDACCCBADBCBACCCDBDCACAADAAADCB
010000612001061018001   5383     1    N 15012479040CADBADABCBDBBBCACAAACBBDABCCADDCCCACBAABDADCADBD  D  D   ADAD CBBAD CDDACDC A BDDACCCDCADACABABACDCB
010000613001061018001   5383     1    N 15012480040CA BADACB CABCDDCABDDBDDAADCDDABDBCCDAABDACBAAA*BADCDBCBDDAABACABCBACDD*CCDCBDBCACCCCDADCCDAADBACDAA
010000614001061018001   5383     1    N 15012476040BBACBACBD CDBBDDBACBCBA*AADDBDCBCCABDAAACACABCCBCCC*BAB CA A DCBAB  CCDACDDDABBC CCCCABCDAABADCCCCCB
010000615001061018001   5383     1    N 15012395040AA DDDA     ACDCCADCCBDAABBBCADBCAACDAABD BB CC B DCCDDACAAADCABABBDBDDACDCBADBCCCBCCDDDBBCAADBBDDAA
010000616001061018001   5383     1    N 15012387040CB   A B  C  C D AADCDDDABADCABAC CCDDABDADCADA   D   D CADAD ABADB  CDACDADBDBDACBCCDADCABAADBDADAA
010000617001061018001   5383     1    N 15012397040DC D DADCBA BC DCADCCBDDBBCCCCABCDA DAABCADCAACD  DBACABDADADCDBBBBCBCDACDCBBCBDDDCCCBCADBCDBDBBCDAA
010000618001061018001   5383     1    N 15012399040CCCCCDABCDDBD *DACBBCAABACBABBCBDAACCDDADCCBCACBCBCCBBCBCAAADACAACBDADDACDABBD*DABDCADACCBCBBAACCCAB
010000619001061018001   5383     1    N 15012413040CBDBCDABDACBBBDDBAABDADDAACAACBDBAACDAACDBDDAAACBACACABADAABDADBBBBACDDACDAABDBDDBACCDADAADBDABAC AB
010000620001061018001   5383     1    N 15012408040CADAAAAB ACCACBDCBBBDDDAACACACBBD  C**ABDCACABADBAADBCCBDABACACAABBACACCCACDBACCAACCCDDACADBBDCACCAC
010000621001061018001   5383     1    N 15012409040DBCBCDCCBCCCB DDCCCADBDDCBBA AABBCB AA B AACADA   C D D  ADAD CABDBDDBDACD BABBBCCCCCDBCCBAABDBDCDAA
010000622001061018001   5383     1    N 15012417040CBDBADABDBCCCCCACBADCBDBDACBABBDDCA BCABDADCBDADDDCBDDABBADADDBADBBCADDACDADBDBD                    
010000623001061018001   5383     1    N 15012405040AA             BCADBCBDDAADCAAABDDBBCCDB   CA  *  *C          CA      DAA BDB DDBCCCCDBABACBADBDCCAB
010000624001061018001   5383     1    N 15012412040CDCBBDAAA*CDCDDCCAAACBADABBDCABDCCBCDAABDADBADADBBCCCCCDCADADCCBBCBCCCDACDCDBDBDCCCCCDADDABACDBDBDAA
010000625001061018001   5383     1    N 15012428040CBCBADABBCCBDCDCDDBADBDDAACCCDBACAACDAABDADCADCCBBCBCBCBDADADADBBBBAAADACDADBDBDDCBCCDADCACAADBDCDAA
010000626001061018001   5383     1    N 15012429040BADB BABA      ABDCADBDBABCC CCDBBACDAABABBCADADADCDDBBCCADAAADBABBDCADACCABBDBDDACCCDBCDADCADBC*BAA
010000627001061018001   5383     1    N 15012359040 AAA AA   DCDCCDBACBCCDDAA B   CDDA A AB A  B  B      B CADAD CBBDB   DACC DB BC  BCCDDDDA   A  CAAD
010000628001061018001   5383     1    N 15009003040ABDB DA D CDACCDABAADBDDCBCDCABDCCACCAABDADCADA*CACCDCCCCCCCCCC*BBCCCCDA         CBCCDADCCCAADBDCDAA
010000629001061018001   5383     1    N 15012343040CBABADC        ADAADCAAAABDCACDDACCBDAABDADCAABDB     BCCADAD BBCBB BBDACDCDBDBD DCCC  ADBCABDBAACDB
010000630001061018001   5383     1    N 15012354040ADCBCDABDABDBBCCAAABCBDDABBABBABCCDBAAABCDDCAABDBADCACCBDAABBCCBCDBCDADACADDAACDDABCCDDCDCBCAABBCBAA
010000631001061018001   5383     1    N 15012349040CCCCBBAADDBABABCCACBCADDCBBBAABDDCCADDAADABCBAACCCABDDDDDAAADBBBBCCCCAADCCCBBCCCAACCCDDADDCCDDACCAAA
010000632001061018001   5383     1    N 15012357040CBCBAAABD CADCCCCDCBCBDDCAACCCABBAADBAABDADCADADB CAADCACAAADB*BCBBCCCDACDADBDBDCCDCCD ACADCCABCCDCB
010000633001061018001   5383     1    N 15012375040CBBBADACABCCCCCADAAADBDDBAADCAABBCCCCAABDADCADBCBBDBBCDAABDADDDBBBBABADACCCBBCBDCCCCCDADCACAADBDCDAA
010000634001061018001   5383     1    N 15012376040CBCBADABA CDBCDDCAAACBDDABCACABCBCACDAABDADCADACBBC D AB AAADADBABBBC DACDADBCBDCCCCCDADCACABDBD DAA
010000635001061018001   5383     1    N 15012322040C               CAABCCADA*CCABDCADCBADCBDAACDBDDBDDBBAABCBDBDADADCBDBDDACDCDADBDDACCADACCDDBBABCCDAD
010000636001061018001   5383     1    N 15012323040C   CDA   CBDCCDCABACBDDABCDCABCCDACDAABDADCADACBACBBCBBCBDADBDBABBCBBDCCDCBACBDACBCCDCACADABDBBCDAA
010000637001061018001   5383     1    N 15012296040C  B DA     B  CCAAACBDDABCACAABCCACDAABDADCADB B     B   AAD DB BB   DACC  B BCCCCCCDADCA AADBD DAB
010000638001061018001   5383     1    N 15012313040ABCBAAABBABBBABCCBBACBDDAABACBBCCCC DCCBCABCDDABBBCBDCBCDAAADDDBBBBBBADACDADBDCCCCBCCDBDCCCA DBBCCAA
010000639001061018001   5383     1    N 15012310040DBCDAABBD CDBC*CBAAACBDDBBBBDDADD  CB ABDADCAB    C D     DAD CBB     DA                          A 
010000640001061018001   5383     1    N 15012312040DDCABCADCDCABADCCADDCBDDABCBCABBDBACCDABCABDBDAACACDCCCDCDDBDBABBCDCAADACDCDBABCDCBCCDAACBCABDBDDBAA
010000641001061018001   5383     1    N 15012302040CBC  DA A C DC ACBADCBDDABCB ABBDCCC B CA B ADBC  C D BDDADA  CBCDBAAADCCDCDBDBC  CCCAACDACA DABAACB
010000642001061018001   5383     1    N 15012320040               CDBABCBDDAACCADABCCACCAABC BBADAB  C DDBBDBDAD CBBBBCDDDACDABADBB CBCCD ADBDADDBCCDDA
010000643001061018001   5383     1    N 15012330040CBDBADA ADCDBCCDCACACBDDABCC D  CAB BAABDADCA*ABB D A     CAD CBCDB   BA D DBDCD CBCCDCCBDCAADB   AA
010000644001061018001   5383     1    N 15012319040               DCAAACBDDBBCCCABBDCACDAABDADCADACABDCDC*BBCAADAABDBBCCDDACDACABBDCCCCCDDDCACBAABD    
010000645001061018001   5383     1    N 15012273040BA   DA  B  B  DDAACCBDDABCAAABBCACDDABB  BCADADB CC  B CADAA DBBBBDBADACDCDBDBD CBCCDADCABAAD C CAA
010000646001061018001   5383     1    N 15012280040  CBADA    DB  ACACADBDDABCDCABCCABCDAABDADCADACBAC   AADADADCDBDBBDCDDACCCDAADCCCBCCDADCACACDBCBCA 
010000647001061018001   5383     1    N 15012285040C CC BADA DCB DCAAAD BDDAB B  BADABB DABBBCD DABBAC DB   AAADA  CDB  DDACAB A ACCCCCCDBACBCB DBDC CB
010000648001061018001   5383     1    N 15012277040CADBCDABABCBBCCDDADACBDDAABDCBBACDBCDCABDADCAAADBCCBCACDACDADADBBBBCAADACDCCBDBDCCABCCCCDADADDACBDCA
010000649001061018001   5383     1    N 15012266040            B  DC ABCCBDA   ABAAC             B   A   C  ACAD CBBBBC  DACCABAD D   CDA CDA  BD  BDA 
010000650001061018001   5383     1    N 15012258040CB  A   D   B CD ADACB DACCBCAAB AACD ABAADCADACBDC D DBDDDAD DBBDB B AACDCDBDBD CCCCBACABCACDBBCDAA
010000651001061018001   5383     1    N 15012244040CCCD DDBDBCBBCCBABABCBACA   DCCADCCCCCCBDACCABBC  C BDCADACADBDBACBA*ADACDCDAABDCBCCCAACDADBAACCCDAB
010000652001061018001   5383     1    N 15012242040   B BA    CBCDDCACACBDDCBDBCABCCAACDAABDAABADACB       CAABDADBDBBACADADADDBADCCCBCCDCDDABABDBCADAA
010000653001061018001   5383     1    N 15012255040CBCBADABD CDBCCCCADACBDDABCDCABDC ACDAABDADCADACB CBBAACDADADCABCBBDBDDACDCBBBBDCCBCCDADCACAADBCCDAA
010000654001061018001   5383     1    N 15012241040DCDBDCABCDBBBCBDCBCBCBDDAABAABCDCDACDDABDCDBADCDACCAADCBDACADACBAB  CADCCDADBACCD CCCDAACACBADBCACAC
010000655001061018001   5383     1    N 15012229040C  B BABBBC BCCDDACACBDD B ACAABCACCDAABDADCADA BBBB  A ADAADADBBBBDACDACDCBADCDCCBCCDDDDA A AB CDAC
010000656001061018001   5383     1    N 15012238040CADDADACDABBBBDADACBCBDDCCBCABADADABBCABDACBBBCCCDBCCCCDCBDBD CBCCBBCDAACAD B BBCDCC   D   CADACC AD
010000657001061018001   5383     1    N 15012237040CBDCDBDBDBDBDDBDBBCDCBDCCACCBABACDA BAABDBDCBDBDBDDCCCBADDDABBDBBBBBBADACDCCBCBDCACCCDBDAACBBDBCDCAD
